{
  "contractName": "Leaves",
  "abi": [
    {
      "inputs": [],
      "name": "name",
      "outputs": [
        {
          "internalType": "string",
          "name": "",
          "type": "string"
        }
      ],
      "stateMutability": "pure",
      "type": "function"
    },
    {
      "inputs": [],
      "name": "balanceOf",
      "outputs": [
        {
          "internalType": "uint256",
          "name": "",
          "type": "uint256"
        }
      ],
      "stateMutability": "view",
      "type": "function"
    },
    {
      "inputs": [
        {
          "internalType": "address",
          "name": "_to",
          "type": "address"
        },
        {
          "internalType": "uint256",
          "name": "_value",
          "type": "uint256"
        }
      ],
      "name": "transferTo",
      "outputs": [
        {
          "internalType": "bool",
          "name": "success",
          "type": "bool"
        }
      ],
      "stateMutability": "nonpayable",
      "type": "function"
    }
  ],
  "bytecode": "0x608060405234801561001057600080fd5b506104ee806100206000396000f3fe608060405234801561001057600080fd5b50600436106100415760003560e01c806306fdde03146100465780632ccb1b3014610064578063722713f714610094575b600080fd5b61004e6100b2565b60405161005b91906102c6565b60405180910390f35b61007e60048036038101906100799190610381565b6100ef565b60405161008b91906103dc565b60405180910390f35b61009c6101f0565b6040516100a99190610406565b60405180910390f35b60606040518060400160405280600681526020017f4c65617665730000000000000000000000000000000000000000000000000000815250905090565b6000816000803373ffffffffffffffffffffffffffffffffffffffff1673ffffffffffffffffffffffffffffffffffffffff16815260200190815260200160002054101561013c57600080fd5b816000803373ffffffffffffffffffffffffffffffffffffffff1673ffffffffffffffffffffffffffffffffffffffff168152602001908152602001600020600082825461018a9190610450565b92505081905550816000808573ffffffffffffffffffffffffffffffffffffffff1673ffffffffffffffffffffffffffffffffffffffff16815260200190815260200160002060008282546101df9190610484565b925050819055506001905092915050565b60008060003373ffffffffffffffffffffffffffffffffffffffff1673ffffffffffffffffffffffffffffffffffffffff16815260200190815260200160002054905090565b600081519050919050565b600082825260208201905092915050565b60005b83811015610270578082015181840152602081019050610255565b60008484015250505050565b6000601f19601f8301169050919050565b600061029882610236565b6102a28185610241565b93506102b2818560208601610252565b6102bb8161027c565b840191505092915050565b600060208201905081810360008301526102e0818461028d565b905092915050565b600080fd5b600073ffffffffffffffffffffffffffffffffffffffff82169050919050565b6000610318826102ed565b9050919050565b6103288161030d565b811461033357600080fd5b50565b6000813590506103458161031f565b92915050565b6000819050919050565b61035e8161034b565b811461036957600080fd5b50565b60008135905061037b81610355565b92915050565b60008060408385031215610398576103976102e8565b5b60006103a685828601610336565b92505060206103b78582860161036c565b9150509250929050565b60008115159050919050565b6103d6816103c1565b82525050565b60006020820190506103f160008301846103cd565b92915050565b6104008161034b565b82525050565b600060208201905061041b60008301846103f7565b92915050565b7f4e487b7100000000000000000000000000000000000000000000000000000000600052601160045260246000fd5b600061045b8261034b565b91506104668361034b565b925082820390508181111561047e5761047d610421565b5b92915050565b600061048f8261034b565b915061049a8361034b565b92508282019050808211156104b2576104b1610421565b5b9291505056fea2646970667358221220bae726dd93c973816f869b3e30b7c3f117afe5581b5711fa0d5507794f7f490164736f6c63430008110033",
  "immutableReferences": {},
  "source": "pragma solidity >=0.8.0;\n\ncontract Leaves {\n    mapping(address => uint) private balances;\n\n    function name() public pure returns (string memory) {\n        return \"Leaves\";\n    }\n    function balanceOf() public view returns (uint) {\n        return balances[msg.sender];\n    }\n    function transferTo(address _to, uint _value) public returns (bool success) {\n        require(balances[msg.sender] >= _value);\n        balances[msg.sender] -= _value;\n        balances[_to] += _value;\n        return true;\n    }\n    function getDailyCoins() internal returns (bool success) {\n        balances[msg.sender] += 2;\n        return true;\n    }\n    function spend(address _user, uint _value) internal returns (bool success) {\n        require(balances[_user] >= _value);\n        balances[_user] -= _value;\n        return true;\n    }\n}",
  "sourcePath": "/Users/jackrathbone/Documents/durhack/moneytree/blockchain/contracts/contracts/leaves.sol",
  "compiler": {
    "name": "solc",
    "version": "0.8.17+commit.8df45f5f.Emscripten.clang"
  },
  "schemaVersion": "3.4.10",
  "updatedAt": "2022-11-19T14:53:36.894Z",
  "devdoc": {
    "kind": "dev",
    "methods": {},
    "version": 1
  },
  "userdoc": {
    "kind": "user",
    "methods": {},
    "version": 1
  }
}