{
  "contractName": "Leaves",
  "abi": [
    {
      "inputs": [],
      "name": "name",
      "outputs": [
        {
          "internalType": "string",
          "name": "",
          "type": "string"
        }
      ],
      "stateMutability": "pure",
      "type": "function"
    },
    {
      "inputs": [],
      "name": "balanceOf",
      "outputs": [
        {
          "internalType": "uint256",
          "name": "",
          "type": "uint256"
        }
      ],
      "stateMutability": "view",
      "type": "function"
    },
    {
      "inputs": [
        {
          "internalType": "address",
          "name": "_to",
          "type": "address"
        },
        {
          "internalType": "uint32",
          "name": "_value",
          "type": "uint32"
        }
      ],
      "name": "transferTo",
      "outputs": [
        {
          "internalType": "bool",
          "name": "success",
          "type": "bool"
        }
      ],
      "stateMutability": "nonpayable",
      "type": "function"
    },
    {
      "inputs": [],
      "name": "getAddress",
      "outputs": [
        {
          "internalType": "address",
          "name": "",
          "type": "address"
        }
      ],
      "stateMutability": "view",
      "type": "function"
    },
    {
      "inputs": [],
      "name": "buy",
      "outputs": [
        {
          "internalType": "bool",
          "name": "success",
          "type": "bool"
        }
      ],
      "stateMutability": "payable",
      "type": "function"
    }
  ],
  "bytecode": "0x608060405234801561001057600080fd5b50610627806100206000396000f3fe60806040526004361061004a5760003560e01c806306fdde031461004f57806338cc48311461007a578063722713f7146100a5578063a6f2ae3a146100d0578063ccb767ae146100ee575b600080fd5b34801561005b57600080fd5b5061006461012b565b60405161007191906103c5565b60405180910390f35b34801561008657600080fd5b5061008f610168565b60405161009c9190610428565b60405180910390f35b3480156100b157600080fd5b506100ba610170565b6040516100c7919061045c565b60405180910390f35b6100d86101b6565b6040516100e59190610492565b60405180910390f35b3480156100fa57600080fd5b506101156004803603810190610110919061051a565b610222565b6040516101229190610492565b60405180910390f35b60606040518060400160405280600681526020017f4c65617665730000000000000000000000000000000000000000000000000000815250905090565b600033905090565b60008060003373ffffffffffffffffffffffffffffffffffffffff1673ffffffffffffffffffffffffffffffffffffffff16815260200190815260200160002054905090565b6000803410156101c557600080fd5b60016000803373ffffffffffffffffffffffffffffffffffffffff1673ffffffffffffffffffffffffffffffffffffffff16815260200190815260200160002060008282546102149190610589565b925050819055506001905090565b60008163ffffffff166000803373ffffffffffffffffffffffffffffffffffffffff1673ffffffffffffffffffffffffffffffffffffffff16815260200190815260200160002054101561027557600080fd5b8163ffffffff166000803373ffffffffffffffffffffffffffffffffffffffff1673ffffffffffffffffffffffffffffffffffffffff16815260200190815260200160002060008282546102c991906105bd565b925050819055508163ffffffff166000808573ffffffffffffffffffffffffffffffffffffffff1673ffffffffffffffffffffffffffffffffffffffff16815260200190815260200160002060008282546103249190610589565b925050819055506001905092915050565b600081519050919050565b600082825260208201905092915050565b60005b8381101561036f578082015181840152602081019050610354565b60008484015250505050565b6000601f19601f8301169050919050565b600061039782610335565b6103a18185610340565b93506103b1818560208601610351565b6103ba8161037b565b840191505092915050565b600060208201905081810360008301526103df818461038c565b905092915050565b600073ffffffffffffffffffffffffffffffffffffffff82169050919050565b6000610412826103e7565b9050919050565b61042281610407565b82525050565b600060208201905061043d6000830184610419565b92915050565b6000819050919050565b61045681610443565b82525050565b6000602082019050610471600083018461044d565b92915050565b60008115159050919050565b61048c81610477565b82525050565b60006020820190506104a76000830184610483565b92915050565b600080fd5b6104bb81610407565b81146104c657600080fd5b50565b6000813590506104d8816104b2565b92915050565b600063ffffffff82169050919050565b6104f7816104de565b811461050257600080fd5b50565b600081359050610514816104ee565b92915050565b60008060408385031215610531576105306104ad565b5b600061053f858286016104c9565b925050602061055085828601610505565b9150509250929050565b7f4e487b7100000000000000000000000000000000000000000000000000000000600052601160045260246000fd5b600061059482610443565b915061059f83610443565b92508282019050808211156105b7576105b661055a565b5b92915050565b60006105c882610443565b91506105d383610443565b92508282039050818111156105eb576105ea61055a565b5b9291505056fea2646970667358221220f14086250a1090e3037805fea98b114a83720f0843051e82ea0f5b946d14640b64736f6c63430008110033",
  "immutableReferences": {},
  "source": "pragma solidity >=0.8.0;\n\ncontract Leaves {\n    mapping(address => uint) private balances;\n\n    function name() public pure returns (string memory) {\n        return \"Leaves\";\n    }\n    function balanceOf() public view returns (uint) {\n        return balances[msg.sender];\n    }\n    function transferTo(address _to, uint32 _value) public returns (bool success) {\n        require(balances[msg.sender] >= _value);\n        balances[msg.sender] -= _value;\n        balances[_to] += _value;\n        return true;\n    }\n    function getDailyCoins() internal returns (bool success) {\n        balances[msg.sender] += 2;\n        return true;\n    }\n    function spend(address _user, uint _value) internal returns (bool success) {\n        require(balances[_user] >= _value);\n        balances[_user] -= _value;\n        return true;\n    }\n    function getAddress() public view returns (address) {\n        return msg.sender;\n    } \n    function buy() public payable returns (bool success) {\n        require(msg.value >= 0);\n        balances[msg.sender] += 1;\n        return true;\n    }\n}",
  "sourcePath": "/Users/jackrathbone/Documents/durhack/moneytree/blockchain/contracts/contracts/leaves.sol",
  "compiler": {
    "name": "solc",
    "version": "0.8.17+commit.8df45f5f.Emscripten.clang"
  },
  "schemaVersion": "3.4.10",
  "updatedAt": "2022-11-20T03:40:47.056Z",
  "devdoc": {
    "kind": "dev",
    "methods": {},
    "version": 1
  },
  "userdoc": {
    "kind": "user",
    "methods": {},
    "version": 1
  }
}