{
  "contractName": "Leaves",
  "abi": [
    {
      "inputs": [],
      "name": "name",
      "outputs": [
        {
          "internalType": "string",
          "name": "",
          "type": "string"
        }
      ],
      "stateMutability": "pure",
      "type": "function"
    },
    {
      "inputs": [],
      "name": "balanceOf",
      "outputs": [
        {
          "internalType": "uint256",
          "name": "",
          "type": "uint256"
        }
      ],
      "stateMutability": "view",
      "type": "function"
    },
    {
      "inputs": [
        {
          "internalType": "address",
          "name": "_to",
          "type": "address"
        },
        {
          "internalType": "uint32",
          "name": "_value",
          "type": "uint32"
        }
      ],
      "name": "transferTo",
      "outputs": [
        {
          "internalType": "bool",
          "name": "success",
          "type": "bool"
        }
      ],
      "stateMutability": "nonpayable",
      "type": "function"
    },
    {
      "inputs": [],
      "name": "getAddress",
      "outputs": [
        {
          "internalType": "address",
          "name": "",
          "type": "address"
        }
      ],
      "stateMutability": "view",
      "type": "function"
    }
  ],
  "bytecode": "0x608060405234801561001057600080fd5b5061056b806100206000396000f3fe608060405234801561001057600080fd5b506004361061004c5760003560e01c806306fdde031461005157806338cc48311461006f578063722713f71461008d578063ccb767ae146100ab575b600080fd5b6100596100db565b6040516100669190610309565b60405180910390f35b610077610118565b604051610084919061036c565b60405180910390f35b610095610120565b6040516100a291906103a0565b60405180910390f35b6100c560048036038101906100c09190610428565b610166565b6040516100d29190610483565b60405180910390f35b60606040518060400160405280600681526020017f4c65617665730000000000000000000000000000000000000000000000000000815250905090565b600033905090565b60008060003373ffffffffffffffffffffffffffffffffffffffff1673ffffffffffffffffffffffffffffffffffffffff16815260200190815260200160002054905090565b60008163ffffffff166000803373ffffffffffffffffffffffffffffffffffffffff1673ffffffffffffffffffffffffffffffffffffffff1681526020019081526020016000205410156101b957600080fd5b8163ffffffff166000803373ffffffffffffffffffffffffffffffffffffffff1673ffffffffffffffffffffffffffffffffffffffff168152602001908152602001600020600082825461020d91906104cd565b925050819055508163ffffffff166000808573ffffffffffffffffffffffffffffffffffffffff1673ffffffffffffffffffffffffffffffffffffffff16815260200190815260200160002060008282546102689190610501565b925050819055506001905092915050565b600081519050919050565b600082825260208201905092915050565b60005b838110156102b3578082015181840152602081019050610298565b60008484015250505050565b6000601f19601f8301169050919050565b60006102db82610279565b6102e58185610284565b93506102f5818560208601610295565b6102fe816102bf565b840191505092915050565b6000602082019050818103600083015261032381846102d0565b905092915050565b600073ffffffffffffffffffffffffffffffffffffffff82169050919050565b60006103568261032b565b9050919050565b6103668161034b565b82525050565b6000602082019050610381600083018461035d565b92915050565b6000819050919050565b61039a81610387565b82525050565b60006020820190506103b56000830184610391565b92915050565b600080fd5b6103c98161034b565b81146103d457600080fd5b50565b6000813590506103e6816103c0565b92915050565b600063ffffffff82169050919050565b610405816103ec565b811461041057600080fd5b50565b600081359050610422816103fc565b92915050565b6000806040838503121561043f5761043e6103bb565b5b600061044d858286016103d7565b925050602061045e85828601610413565b9150509250929050565b60008115159050919050565b61047d81610468565b82525050565b60006020820190506104986000830184610474565b92915050565b7f4e487b7100000000000000000000000000000000000000000000000000000000600052601160045260246000fd5b60006104d882610387565b91506104e383610387565b92508282039050818111156104fb576104fa61049e565b5b92915050565b600061050c82610387565b915061051783610387565b925082820190508082111561052f5761052e61049e565b5b9291505056fea2646970667358221220d02cad1873923f90d1ed0a3f3d418c996ed41e7ac4b713da25ce12d9019c1ba264736f6c63430008110033",
  "immutableReferences": {},
  "source": "pragma solidity >=0.8.0;\n\ncontract Leaves {\n    mapping(address => uint) private balances;\n\n    function name() public pure returns (string memory) {\n        return \"Leaves\";\n    }\n    function balanceOf() public view returns (uint) {\n        return balances[msg.sender];\n    }\n    function transferTo(address _to, uint32 _value) public returns (bool success) {\n        require(balances[msg.sender] >= _value);\n        balances[msg.sender] -= _value;\n        balances[_to] += _value;\n        return true;\n    }\n    function getDailyCoins() internal returns (bool success) {\n        balances[msg.sender] += 2;\n        return true;\n    }\n    function spend(address _user, uint _value) internal returns (bool success) {\n        require(balances[_user] >= _value);\n        balances[_user] -= _value;\n        return true;\n    }\n    function getAddress() public view returns (address) {\n        return msg.sender;\n    } \n}",
  "sourcePath": "/Users/jackrathbone/Documents/durhack/moneytree/blockchain/contracts/contracts/leaves.sol",
  "compiler": {
    "name": "solc",
    "version": "0.8.17+commit.8df45f5f.Emscripten.clang"
  },
  "schemaVersion": "3.4.10",
  "updatedAt": "2022-11-20T01:41:25.934Z",
  "devdoc": {
    "kind": "dev",
    "methods": {},
    "version": 1
  },
  "userdoc": {
    "kind": "user",
    "methods": {},
    "version": 1
  }
}