{
  "contractName": "Moneytrees",
  "abi": [
    {
      "inputs": [],
      "name": "balanceOf",
      "outputs": [
        {
          "internalType": "uint256",
          "name": "",
          "type": "uint256"
        }
      ],
      "stateMutability": "view",
      "type": "function"
    },
    {
      "inputs": [],
      "name": "getAddress",
      "outputs": [
        {
          "internalType": "address",
          "name": "",
          "type": "address"
        }
      ],
      "stateMutability": "view",
      "type": "function"
    },
    {
      "inputs": [],
      "name": "name",
      "outputs": [
        {
          "internalType": "string",
          "name": "",
          "type": "string"
        }
      ],
      "stateMutability": "pure",
      "type": "function"
    },
    {
      "inputs": [
        {
          "internalType": "address",
          "name": "_to",
          "type": "address"
        },
        {
          "internalType": "uint32",
          "name": "_value",
          "type": "uint32"
        }
      ],
      "name": "transferTo",
      "outputs": [
        {
          "internalType": "bool",
          "name": "success",
          "type": "bool"
        }
      ],
      "stateMutability": "nonpayable",
      "type": "function"
    },
    {
      "inputs": [],
      "name": "createPlant",
      "outputs": [
        {
          "internalType": "bool",
          "name": "success",
          "type": "bool"
        }
      ],
      "stateMutability": "nonpayable",
      "type": "function"
    },
    {
      "inputs": [],
      "name": "hasPlant",
      "outputs": [
        {
          "internalType": "bool",
          "name": "",
          "type": "bool"
        }
      ],
      "stateMutability": "view",
      "type": "function"
    },
    {
      "inputs": [],
      "name": "waterPlant",
      "outputs": [
        {
          "internalType": "bool",
          "name": "success",
          "type": "bool"
        }
      ],
      "stateMutability": "nonpayable",
      "type": "function"
    },
    {
      "inputs": [],
      "name": "canWater",
      "outputs": [
        {
          "internalType": "bool",
          "name": "",
          "type": "bool"
        }
      ],
      "stateMutability": "view",
      "type": "function"
    },
    {
      "inputs": [],
      "name": "getCooldown",
      "outputs": [
        {
          "internalType": "uint256",
          "name": "",
          "type": "uint256"
        }
      ],
      "stateMutability": "view",
      "type": "function"
    },
    {
      "inputs": [],
      "name": "feedPlant",
      "outputs": [
        {
          "internalType": "bool",
          "name": "success",
          "type": "bool"
        }
      ],
      "stateMutability": "nonpayable",
      "type": "function"
    },
    {
      "inputs": [],
      "name": "resetPlant",
      "outputs": [
        {
          "internalType": "bool",
          "name": "success",
          "type": "bool"
        }
      ],
      "stateMutability": "nonpayable",
      "type": "function"
    },
    {
      "inputs": [],
      "name": "getPlantWatered",
      "outputs": [
        {
          "internalType": "bool",
          "name": "",
          "type": "bool"
        }
      ],
      "stateMutability": "view",
      "type": "function"
    },
    {
      "inputs": [],
      "name": "getPlantGrowth",
      "outputs": [
        {
          "internalType": "uint256",
          "name": "",
          "type": "uint256"
        }
      ],
      "stateMutability": "view",
      "type": "function"
    },
    {
      "inputs": [],
      "name": "getPlantFeed",
      "outputs": [
        {
          "internalType": "uint256",
          "name": "",
          "type": "uint256"
        }
      ],
      "stateMutability": "view",
      "type": "function"
    },
    {
      "inputs": [],
      "name": "getPlantLastWatered",
      "outputs": [
        {
          "internalType": "uint256",
          "name": "",
          "type": "uint256"
        }
      ],
      "stateMutability": "view",
      "type": "function"
    }
  ],
  "bytecode": "0x608060405234801561001057600080fd5b506113a1806100206000396000f3fe608060405234801561001057600080fd5b50600436106100f55760003560e01c8063a82cdf2c11610097578063ccb767ae11610066578063ccb767ae14610244578063e6510e5414610274578063ea62951614610292578063eab4f151146102b0576100f5565b8063a82cdf2c146101cc578063b2eb53a1146101ea578063c20ba1c614610208578063cb5e630614610226576100f5565b806364828738116100d35780636482873814610154578063722713f71461017257806375ffcee214610190578063833d4993146101ae576100f5565b806306fdde03146100fa578063218e4a151461011857806338cc483114610136575b600080fd5b6101026102ce565b60405161010f9190610ff6565b60405180910390f35b61012061030b565b60405161012d9190611031565b60405180910390f35b61013e6103d3565b60405161014b919061108d565b60405180910390f35b61015c6103db565b60405161016991906110c3565b60405180910390f35b61017a610568565b6040516101879190611031565b60405180910390f35b6101986105ae565b6040516101a591906110c3565b60405180910390f35b6101b66105f8565b6040516101c391906110c3565b60405180910390f35b6101d461067c565b6040516101e191906110c3565b60405180910390f35b6101f2610747565b6040516101ff91906110c3565b60405180910390f35b610210610916565b60405161021d9190611031565b60405180910390f35b61022e61098d565b60405161023b91906110c3565b60405180910390f35b61025e6004803603810190610259919061114b565b610aca565b60405161026b91906110c3565b60405180910390f35b61027c610bdd565b60405161028991906110c3565b60405180910390f35b61029a610d6d565b6040516102a79190611031565b60405180910390f35b6102b8610de4565b6040516102c59190611031565b60405180910390f35b60606040518060400160405280600681526020017f4c65617665730000000000000000000000000000000000000000000000000000815250905090565b600080600160003373ffffffffffffffffffffffffffffffffffffffff1673ffffffffffffffffffffffffffffffffffffffff168152602001908152602001600020540361038e576040517f08c379a0000000000000000000000000000000000000000000000000000000008152600401610385906111d7565b60405180910390fd5b600260003373ffffffffffffffffffffffffffffffffffffffff1673ffffffffffffffffffffffffffffffffffffffff16815260200190815260200160002054905090565b600033905090565b600080600160003373ffffffffffffffffffffffffffffffffffffffff1673ffffffffffffffffffffffffffffffffffffffff168152602001908152602001600020541461045e576040517f08c379a000000000000000000000000000000000000000000000000000000000815260040161045590611243565b60405180910390fd5b600060016003805490506104729190611292565b905060006040518060a0016040528083815260200160001515815260200160008152602001600081526020016000815250905060038190806001815401808255809150506001900390600052602060002090600502016000909190919091506000820151816000015560208201518160010160006101000a81548160ff021916908315150217905550604082015181600201556060820151816003015560808201518160040155505081600160003373ffffffffffffffffffffffffffffffffffffffff1673ffffffffffffffffffffffffffffffffffffffff1681526020019081526020016000208190555060019250505090565b60008060003373ffffffffffffffffffffffffffffffffffffffff1673ffffffffffffffffffffffffffffffffffffffff16815260200190815260200160002054905090565b600080600160003373ffffffffffffffffffffffffffffffffffffffff1673ffffffffffffffffffffffffffffffffffffffff168152602001908152602001600020541415905090565b6000600360018060003373ffffffffffffffffffffffffffffffffffffffff1673ffffffffffffffffffffffffffffffffffffffff1681526020019081526020016000205461064791906112c6565b81548110610658576106576112fa565b5b906000526020600020906005020160010160009054906101000a900460ff16905090565b600080600160003373ffffffffffffffffffffffffffffffffffffffff1673ffffffffffffffffffffffffffffffffffffffff16815260200190815260200160002054036106ff576040517f08c379a00000000000000000000000000000000000000000000000000000000081526004016106f6906111d7565b60405180910390fd5b42600260003373ffffffffffffffffffffffffffffffffffffffff1673ffffffffffffffffffffffffffffffffffffffff168152602001908152602001600020541115905090565b600080600160003373ffffffffffffffffffffffffffffffffffffffff1673ffffffffffffffffffffffffffffffffffffffff16815260200190815260200160002054036107ca576040517f08c379a00000000000000000000000000000000000000000000000000000000081526004016107c1906111d7565b60405180910390fd5b600260003373ffffffffffffffffffffffffffffffffffffffff1673ffffffffffffffffffffffffffffffffffffffff1681526020019081526020016000205442101561081657600080fd5b62015180426108259190611292565b600260003373ffffffffffffffffffffffffffffffffffffffff1673ffffffffffffffffffffffffffffffffffffffff168152602001908152602001600020819055506000600160003373ffffffffffffffffffffffffffffffffffffffff1673ffffffffffffffffffffffffffffffffffffffff168152602001908152602001600020549050600060036001836108bd91906112c6565b815481106108ce576108cd6112fa565b5b9060005260206000209060050201905060018160010160006101000a81548160ff02191690831515021790555042816004018190555061090c610e5b565b5060019250505090565b6000600360018060003373ffffffffffffffffffffffffffffffffffffffff1673ffffffffffffffffffffffffffffffffffffffff1681526020019081526020016000205461096591906112c6565b81548110610976576109756112fa565b5b906000526020600020906005020160040154905090565b600080600160003373ffffffffffffffffffffffffffffffffffffffff1673ffffffffffffffffffffffffffffffffffffffff1681526020019081526020016000205403610a10576040517f08c379a0000000000000000000000000000000000000000000000000000000008152600401610a07906111d7565b60405180910390fd5b6000600160003373ffffffffffffffffffffffffffffffffffffffff1673ffffffffffffffffffffffffffffffffffffffff16815260200190815260200160002054905060006003600183610a6591906112c6565b81548110610a7657610a756112fa565b5b9060005260206000209060050201905060008160020181905550600081600301819055506000816004018190555060008160010160006101000a81548160ff02191690831515021790555060019250505090565b60008163ffffffff166000803373ffffffffffffffffffffffffffffffffffffffff1673ffffffffffffffffffffffffffffffffffffffff168152602001908152602001600020541015610b1d57600080fd5b8163ffffffff166000803373ffffffffffffffffffffffffffffffffffffffff1673ffffffffffffffffffffffffffffffffffffffff1681526020019081526020016000206000828254610b7191906112c6565b925050819055508163ffffffff166000808573ffffffffffffffffffffffffffffffffffffffff1673ffffffffffffffffffffffffffffffffffffffff1681526020019081526020016000206000828254610bcc9190611292565b925050819055506001905092915050565b600080600160003373ffffffffffffffffffffffffffffffffffffffff1673ffffffffffffffffffffffffffffffffffffffff1681526020019081526020016000205403610c60576040517f08c379a0000000000000000000000000000000000000000000000000000000008152600401610c57906111d7565b60405180910390fd5b610c6b336001610eba565b506000600160003373ffffffffffffffffffffffffffffffffffffffff1673ffffffffffffffffffffffffffffffffffffffff16815260200190815260200160002054905060006003600183610cc191906112c6565b81548110610cd257610cd16112fa565b5b906000526020600020906005020190506001816003016000828254610cf79190611292565b92505081905550600560018260020154610d119190611292565b610d1b9190611329565b816003015403610d64576001816002016000828254610d3a9190611292565b92505081905550600481600201541115610d5957600481600201819055505b600081600301819055505b60019250505090565b6000600360018060003373ffffffffffffffffffffffffffffffffffffffff1673ffffffffffffffffffffffffffffffffffffffff16815260200190815260200160002054610dbc91906112c6565b81548110610dcd57610dcc6112fa565b5b906000526020600020906005020160020154905090565b6000600360018060003373ffffffffffffffffffffffffffffffffffffffff1673ffffffffffffffffffffffffffffffffffffffff16815260200190815260200160002054610e3391906112c6565b81548110610e4457610e436112fa565b5b906000526020600020906005020160030154905090565b600060026000803373ffffffffffffffffffffffffffffffffffffffff1673ffffffffffffffffffffffffffffffffffffffff1681526020019081526020016000206000828254610eac9190611292565b925050819055506001905090565b6000816000808573ffffffffffffffffffffffffffffffffffffffff1673ffffffffffffffffffffffffffffffffffffffff168152602001908152602001600020541015610f0757600080fd5b816000808573ffffffffffffffffffffffffffffffffffffffff1673ffffffffffffffffffffffffffffffffffffffff1681526020019081526020016000206000828254610f5591906112c6565b925050819055506001905092915050565b600081519050919050565b600082825260208201905092915050565b60005b83811015610fa0578082015181840152602081019050610f85565b60008484015250505050565b6000601f19601f8301169050919050565b6000610fc882610f66565b610fd28185610f71565b9350610fe2818560208601610f82565b610feb81610fac565b840191505092915050565b600060208201905081810360008301526110108184610fbd565b905092915050565b6000819050919050565b61102b81611018565b82525050565b60006020820190506110466000830184611022565b92915050565b600073ffffffffffffffffffffffffffffffffffffffff82169050919050565b60006110778261104c565b9050919050565b6110878161106c565b82525050565b60006020820190506110a2600083018461107e565b92915050565b60008115159050919050565b6110bd816110a8565b82525050565b60006020820190506110d860008301846110b4565b92915050565b600080fd5b6110ec8161106c565b81146110f757600080fd5b50565b600081359050611109816110e3565b92915050565b600063ffffffff82169050919050565b6111288161110f565b811461113357600080fd5b50565b6000813590506111458161111f565b92915050565b60008060408385031215611162576111616110de565b5b6000611170858286016110fa565b925050602061118185828601611136565b9150509250929050565b7f55736572206d7573742068617665206120706c616e7400000000000000000000600082015250565b60006111c1601683610f71565b91506111cc8261118b565b602082019050919050565b600060208201905081810360008301526111f0816111b4565b9050919050565b7f5573657220616c72656164792068617320706c616e7400000000000000000000600082015250565b600061122d601683610f71565b9150611238826111f7565b602082019050919050565b6000602082019050818103600083015261125c81611220565b9050919050565b7f4e487b7100000000000000000000000000000000000000000000000000000000600052601160045260246000fd5b600061129d82611018565b91506112a883611018565b92508282019050808211156112c0576112bf611263565b5b92915050565b60006112d182611018565b91506112dc83611018565b92508282039050818111156112f4576112f3611263565b5b92915050565b7f4e487b7100000000000000000000000000000000000000000000000000000000600052603260045260246000fd5b600061133482611018565b915061133f83611018565b925082820261134d81611018565b9150828204841483151761136457611363611263565b5b509291505056fea2646970667358221220000a9c04793a9183980b95b956525d4b1556a30834a8d7140b9d5c60b6f47a6064736f6c63430008110033",
  "immutableReferences": {},
  "source": "pragma solidity >=0.8.0;\n\nimport \"./leaves.sol\";\n\ncontract Moneytrees is Leaves {\n    struct Plant {\n        uint id;\n        bool watered;\n        uint growthStage;\n        uint feedAmount;\n        uint lastWatered;\n    }\n    mapping (address => uint) ownerPlant;\n    mapping(address => uint) cooldowns;\n\n    modifier ownsPlant() {\n        require(ownerPlant[msg.sender] != 0, \"User must have a plant\");\n        _;\n    }\n\n    Plant[] plants;\n    function createPlant() public returns (bool success) {\n        require(ownerPlant[msg.sender] == 0,\"User already has plant\");\n        uint newId = plants.length + 1;\n        Plant memory newPlant = Plant(newId,false,0,0,0);\n        plants.push(newPlant);\n        ownerPlant[msg.sender] = newId;\n        return true;\n    }\n    function hasPlant() public view returns (bool) {\n        return ownerPlant[msg.sender] != 0;\n    }\n    function waterPlant() public ownsPlant returns (bool success) {\n        require(block.timestamp >= cooldowns[msg.sender]);\n        cooldowns[msg.sender] = block.timestamp + 1 days;\n        uint id = ownerPlant[msg.sender];\n        Plant storage currentPlant = plants[id - 1];\n        currentPlant.watered = true;\n        currentPlant.lastWatered = block.timestamp;\n        getDailyCoins();\n        return true;\n    }\n    function canWater() public view ownsPlant returns (bool) {\n        return cooldowns[msg.sender] <= block.timestamp;\n    }\n    function getCooldown() public view ownsPlant returns (uint) {\n        return cooldowns[msg.sender];\n    }\n    function feedPlant() public ownsPlant returns (bool success) {\n        spend(msg.sender, 1);\n        uint id = ownerPlant[msg.sender];\n        Plant storage currentPlant = plants[id - 1];\n        currentPlant.feedAmount += 1;\n        if (currentPlant.feedAmount == (currentPlant.growthStage + 1) * 5) {\n            currentPlant.growthStage += 1;\n            if (currentPlant.growthStage > 4) {\n                currentPlant.growthStage = 4;\n            }\n            currentPlant.feedAmount = 0;\n        }\n        return true;\n    }\n    function resetPlant() public ownsPlant returns (bool success) {\n        uint id = ownerPlant[msg.sender];\n        Plant storage currentPlant = plants[id - 1];\n        currentPlant.growthStage = 0;\n        currentPlant.feedAmount = 0;\n        currentPlant.lastWatered = 0;\n        currentPlant.watered = false;\n        return true;\n    }\n    function getPlantWatered() public view returns (bool) {\n        return plants[ownerPlant[msg.sender] - 1].watered;\n    }\n    function getPlantGrowth() public view returns (uint) {\n        return plants[ownerPlant[msg.sender] - 1].growthStage;\n    }\n    function getPlantFeed() public view returns (uint) {\n        return plants[ownerPlant[msg.sender] - 1].feedAmount;\n    }\n    function getPlantLastWatered() public view returns (uint) {\n        return plants[ownerPlant[msg.sender] - 1].lastWatered;\n    }\n}",
  "sourcePath": "/Users/jackrathbone/Documents/durhack/moneytree/blockchain/contracts/contracts/moneytree.sol",
  "compiler": {
    "name": "solc",
    "version": "0.8.17+commit.8df45f5f.Emscripten.clang"
  },
  "schemaVersion": "3.4.10",
  "updatedAt": "2022-11-20T01:41:25.983Z",
  "devdoc": {
    "kind": "dev",
    "methods": {},
    "version": 1
  },
  "userdoc": {
    "kind": "user",
    "methods": {},
    "version": 1
  }
}