{
  "contractName": "Moneytrees",
  "abi": [
    {
      "inputs": [],
      "name": "balanceOf",
      "outputs": [
        {
          "internalType": "uint256",
          "name": "",
          "type": "uint256"
        }
      ],
      "stateMutability": "view",
      "type": "function"
    },
    {
      "inputs": [],
      "name": "buy",
      "outputs": [
        {
          "internalType": "bool",
          "name": "success",
          "type": "bool"
        }
      ],
      "stateMutability": "payable",
      "type": "function"
    },
    {
      "inputs": [],
      "name": "getAddress",
      "outputs": [
        {
          "internalType": "address",
          "name": "",
          "type": "address"
        }
      ],
      "stateMutability": "view",
      "type": "function"
    },
    {
      "inputs": [],
      "name": "name",
      "outputs": [
        {
          "internalType": "string",
          "name": "",
          "type": "string"
        }
      ],
      "stateMutability": "pure",
      "type": "function"
    },
    {
      "inputs": [
        {
          "internalType": "address",
          "name": "_to",
          "type": "address"
        },
        {
          "internalType": "uint32",
          "name": "_value",
          "type": "uint32"
        }
      ],
      "name": "transferTo",
      "outputs": [
        {
          "internalType": "bool",
          "name": "success",
          "type": "bool"
        }
      ],
      "stateMutability": "nonpayable",
      "type": "function"
    },
    {
      "inputs": [],
      "name": "createPlant",
      "outputs": [
        {
          "internalType": "bool",
          "name": "success",
          "type": "bool"
        }
      ],
      "stateMutability": "nonpayable",
      "type": "function"
    },
    {
      "inputs": [],
      "name": "hasPlant",
      "outputs": [
        {
          "internalType": "bool",
          "name": "",
          "type": "bool"
        }
      ],
      "stateMutability": "view",
      "type": "function"
    },
    {
      "inputs": [],
      "name": "waterPlant",
      "outputs": [
        {
          "internalType": "bool",
          "name": "success",
          "type": "bool"
        }
      ],
      "stateMutability": "nonpayable",
      "type": "function"
    },
    {
      "inputs": [],
      "name": "canWater",
      "outputs": [
        {
          "internalType": "bool",
          "name": "",
          "type": "bool"
        }
      ],
      "stateMutability": "view",
      "type": "function"
    },
    {
      "inputs": [],
      "name": "getCooldown",
      "outputs": [
        {
          "internalType": "uint256",
          "name": "",
          "type": "uint256"
        }
      ],
      "stateMutability": "view",
      "type": "function"
    },
    {
      "inputs": [],
      "name": "feedPlant",
      "outputs": [
        {
          "internalType": "bool",
          "name": "success",
          "type": "bool"
        }
      ],
      "stateMutability": "nonpayable",
      "type": "function"
    },
    {
      "inputs": [],
      "name": "resetPlant",
      "outputs": [
        {
          "internalType": "bool",
          "name": "success",
          "type": "bool"
        }
      ],
      "stateMutability": "nonpayable",
      "type": "function"
    },
    {
      "inputs": [],
      "name": "getPlantWatered",
      "outputs": [
        {
          "internalType": "bool",
          "name": "",
          "type": "bool"
        }
      ],
      "stateMutability": "view",
      "type": "function"
    },
    {
      "inputs": [],
      "name": "getPlantGrowth",
      "outputs": [
        {
          "internalType": "uint256",
          "name": "",
          "type": "uint256"
        }
      ],
      "stateMutability": "view",
      "type": "function"
    },
    {
      "inputs": [],
      "name": "getPlantFeed",
      "outputs": [
        {
          "internalType": "uint256",
          "name": "",
          "type": "uint256"
        }
      ],
      "stateMutability": "view",
      "type": "function"
    },
    {
      "inputs": [],
      "name": "getPlantLastWatered",
      "outputs": [
        {
          "internalType": "uint256",
          "name": "",
          "type": "uint256"
        }
      ],
      "stateMutability": "view",
      "type": "function"
    },
    {
      "inputs": [],
      "name": "getPlantId",
      "outputs": [
        {
          "internalType": "uint256",
          "name": "",
          "type": "uint256"
        }
      ],
      "stateMutability": "view",
      "type": "function"
    }
  ],
  "bytecode": "0x608060405234801561001057600080fd5b506115de806100206000396000f3fe6080604052600436106100fe5760003560e01c8063a6f2ae3a11610095578063cb5e630611610064578063cb5e6306146102fa578063ccb767ae14610325578063e6510e5414610362578063ea6295161461038d578063eab4f151146103b8576100fe565b8063a6f2ae3a1461025b578063a82cdf2c14610279578063b2eb53a1146102a4578063c20ba1c6146102cf576100fe565b8063722713f7116100d1578063722713f7146101af57806375ffcee2146101da578063833d49931461020557806399cf812714610230576100fe565b806306fdde0314610103578063218e4a151461012e57806338cc4831146101595780636482873814610184575b600080fd5b34801561010f57600080fd5b506101186103e3565b6040516101259190611233565b60405180910390f35b34801561013a57600080fd5b50610143610420565b604051610150919061126e565b60405180910390f35b34801561016557600080fd5b5061016e6104e8565b60405161017b91906112ca565b60405180910390f35b34801561019057600080fd5b506101996104f0565b6040516101a69190611300565b60405180910390f35b3480156101bb57600080fd5b506101c461067d565b6040516101d1919061126e565b60405180910390f35b3480156101e657600080fd5b506101ef6106c3565b6040516101fc9190611300565b60405180910390f35b34801561021157600080fd5b5061021a61070d565b6040516102279190611300565b60405180910390f35b34801561023c57600080fd5b50610245610791565b604051610252919061126e565b60405180910390f35b610263610808565b6040516102709190611300565b60405180910390f35b34801561028557600080fd5b5061028e610874565b60405161029b9190611300565b60405180910390f35b3480156102b057600080fd5b506102b961093f565b6040516102c69190611300565b60405180910390f35b3480156102db57600080fd5b506102e4610b0e565b6040516102f1919061126e565b60405180910390f35b34801561030657600080fd5b5061030f610b85565b60405161031c9190611300565b60405180910390f35b34801561033157600080fd5b5061034c60048036038101906103479190611388565b610d07565b6040516103599190611300565b60405180910390f35b34801561036e57600080fd5b50610377610e1a565b6040516103849190611300565b60405180910390f35b34801561039957600080fd5b506103a2610faa565b6040516103af919061126e565b60405180910390f35b3480156103c457600080fd5b506103cd611021565b6040516103da919061126e565b60405180910390f35b60606040518060400160405280600681526020017f4c65617665730000000000000000000000000000000000000000000000000000815250905090565b600080600160003373ffffffffffffffffffffffffffffffffffffffff1673ffffffffffffffffffffffffffffffffffffffff16815260200190815260200160002054036104a3576040517f08c379a000000000000000000000000000000000000000000000000000000000815260040161049a90611414565b60405180910390fd5b600260003373ffffffffffffffffffffffffffffffffffffffff1673ffffffffffffffffffffffffffffffffffffffff16815260200190815260200160002054905090565b600033905090565b600080600160003373ffffffffffffffffffffffffffffffffffffffff1673ffffffffffffffffffffffffffffffffffffffff1681526020019081526020016000205414610573576040517f08c379a000000000000000000000000000000000000000000000000000000000815260040161056a90611480565b60405180910390fd5b6000600160038054905061058791906114cf565b905060006040518060a0016040528083815260200160001515815260200160008152602001600081526020016000815250905060038190806001815401808255809150506001900390600052602060002090600502016000909190919091506000820151816000015560208201518160010160006101000a81548160ff021916908315150217905550604082015181600201556060820151816003015560808201518160040155505081600160003373ffffffffffffffffffffffffffffffffffffffff1673ffffffffffffffffffffffffffffffffffffffff1681526020019081526020016000208190555060019250505090565b60008060003373ffffffffffffffffffffffffffffffffffffffff1673ffffffffffffffffffffffffffffffffffffffff16815260200190815260200160002054905090565b600080600160003373ffffffffffffffffffffffffffffffffffffffff1673ffffffffffffffffffffffffffffffffffffffff168152602001908152602001600020541415905090565b6000600360018060003373ffffffffffffffffffffffffffffffffffffffff1673ffffffffffffffffffffffffffffffffffffffff1681526020019081526020016000205461075c9190611503565b8154811061076d5761076c611537565b5b906000526020600020906005020160010160009054906101000a900460ff16905090565b6000600360018060003373ffffffffffffffffffffffffffffffffffffffff1673ffffffffffffffffffffffffffffffffffffffff168152602001908152602001600020546107e09190611503565b815481106107f1576107f0611537565b5b906000526020600020906005020160000154905090565b60008034101561081757600080fd5b60016000803373ffffffffffffffffffffffffffffffffffffffff1673ffffffffffffffffffffffffffffffffffffffff168152602001908152602001600020600082825461086691906114cf565b925050819055506001905090565b600080600160003373ffffffffffffffffffffffffffffffffffffffff1673ffffffffffffffffffffffffffffffffffffffff16815260200190815260200160002054036108f7576040517f08c379a00000000000000000000000000000000000000000000000000000000081526004016108ee90611414565b60405180910390fd5b42600260003373ffffffffffffffffffffffffffffffffffffffff1673ffffffffffffffffffffffffffffffffffffffff168152602001908152602001600020541115905090565b600080600160003373ffffffffffffffffffffffffffffffffffffffff1673ffffffffffffffffffffffffffffffffffffffff16815260200190815260200160002054036109c2576040517f08c379a00000000000000000000000000000000000000000000000000000000081526004016109b990611414565b60405180910390fd5b600260003373ffffffffffffffffffffffffffffffffffffffff1673ffffffffffffffffffffffffffffffffffffffff16815260200190815260200160002054421015610a0e57600080fd5b6201518042610a1d91906114cf565b600260003373ffffffffffffffffffffffffffffffffffffffff1673ffffffffffffffffffffffffffffffffffffffff168152602001908152602001600020819055506000600160003373ffffffffffffffffffffffffffffffffffffffff1673ffffffffffffffffffffffffffffffffffffffff16815260200190815260200160002054905060006003600183610ab59190611503565b81548110610ac657610ac5611537565b5b9060005260206000209060050201905060018160010160006101000a81548160ff021916908315150217905550428160040181905550610b04611098565b5060019250505090565b6000600360018060003373ffffffffffffffffffffffffffffffffffffffff1673ffffffffffffffffffffffffffffffffffffffff16815260200190815260200160002054610b5d9190611503565b81548110610b6e57610b6d611537565b5b906000526020600020906005020160040154905090565b600080600160003373ffffffffffffffffffffffffffffffffffffffff1673ffffffffffffffffffffffffffffffffffffffff1681526020019081526020016000205403610c08576040517f08c379a0000000000000000000000000000000000000000000000000000000008152600401610bff90611414565b60405180910390fd5b6000600160003373ffffffffffffffffffffffffffffffffffffffff1673ffffffffffffffffffffffffffffffffffffffff16815260200190815260200160002054905060006003600183610c5d9190611503565b81548110610c6e57610c6d611537565b5b9060005260206000209060050201905060008160020181905550600081600301819055506000816004018190555060008160010160006101000a81548160ff0219169083151502179055506000600260003373ffffffffffffffffffffffffffffffffffffffff1673ffffffffffffffffffffffffffffffffffffffff1681526020019081526020016000208190555060019250505090565b60008163ffffffff166000803373ffffffffffffffffffffffffffffffffffffffff1673ffffffffffffffffffffffffffffffffffffffff168152602001908152602001600020541015610d5a57600080fd5b8163ffffffff166000803373ffffffffffffffffffffffffffffffffffffffff1673ffffffffffffffffffffffffffffffffffffffff1681526020019081526020016000206000828254610dae9190611503565b925050819055508163ffffffff166000808573ffffffffffffffffffffffffffffffffffffffff1673ffffffffffffffffffffffffffffffffffffffff1681526020019081526020016000206000828254610e0991906114cf565b925050819055506001905092915050565b600080600160003373ffffffffffffffffffffffffffffffffffffffff1673ffffffffffffffffffffffffffffffffffffffff1681526020019081526020016000205403610e9d576040517f08c379a0000000000000000000000000000000000000000000000000000000008152600401610e9490611414565b60405180910390fd5b610ea83360016110f7565b506000600160003373ffffffffffffffffffffffffffffffffffffffff1673ffffffffffffffffffffffffffffffffffffffff16815260200190815260200160002054905060006003600183610efe9190611503565b81548110610f0f57610f0e611537565b5b906000526020600020906005020190506001816003016000828254610f3491906114cf565b92505081905550600560018260020154610f4e91906114cf565b610f589190611566565b816003015403610fa1576001816002016000828254610f7791906114cf565b92505081905550600481600201541115610f9657600481600201819055505b600081600301819055505b60019250505090565b6000600360018060003373ffffffffffffffffffffffffffffffffffffffff1673ffffffffffffffffffffffffffffffffffffffff16815260200190815260200160002054610ff99190611503565b8154811061100a57611009611537565b5b906000526020600020906005020160020154905090565b6000600360018060003373ffffffffffffffffffffffffffffffffffffffff1673ffffffffffffffffffffffffffffffffffffffff168152602001908152602001600020546110709190611503565b8154811061108157611080611537565b5b906000526020600020906005020160030154905090565b600060026000803373ffffffffffffffffffffffffffffffffffffffff1673ffffffffffffffffffffffffffffffffffffffff16815260200190815260200160002060008282546110e991906114cf565b925050819055506001905090565b6000816000808573ffffffffffffffffffffffffffffffffffffffff1673ffffffffffffffffffffffffffffffffffffffff16815260200190815260200160002054101561114457600080fd5b816000808573ffffffffffffffffffffffffffffffffffffffff1673ffffffffffffffffffffffffffffffffffffffff16815260200190815260200160002060008282546111929190611503565b925050819055506001905092915050565b600081519050919050565b600082825260208201905092915050565b60005b838110156111dd5780820151818401526020810190506111c2565b60008484015250505050565b6000601f19601f8301169050919050565b6000611205826111a3565b61120f81856111ae565b935061121f8185602086016111bf565b611228816111e9565b840191505092915050565b6000602082019050818103600083015261124d81846111fa565b905092915050565b6000819050919050565b61126881611255565b82525050565b6000602082019050611283600083018461125f565b92915050565b600073ffffffffffffffffffffffffffffffffffffffff82169050919050565b60006112b482611289565b9050919050565b6112c4816112a9565b82525050565b60006020820190506112df60008301846112bb565b92915050565b60008115159050919050565b6112fa816112e5565b82525050565b600060208201905061131560008301846112f1565b92915050565b600080fd5b611329816112a9565b811461133457600080fd5b50565b60008135905061134681611320565b92915050565b600063ffffffff82169050919050565b6113658161134c565b811461137057600080fd5b50565b6000813590506113828161135c565b92915050565b6000806040838503121561139f5761139e61131b565b5b60006113ad85828601611337565b92505060206113be85828601611373565b9150509250929050565b7f55736572206d7573742068617665206120706c616e7400000000000000000000600082015250565b60006113fe6016836111ae565b9150611409826113c8565b602082019050919050565b6000602082019050818103600083015261142d816113f1565b9050919050565b7f5573657220616c72656164792068617320706c616e7400000000000000000000600082015250565b600061146a6016836111ae565b915061147582611434565b602082019050919050565b600060208201905081810360008301526114998161145d565b9050919050565b7f4e487b7100000000000000000000000000000000000000000000000000000000600052601160045260246000fd5b60006114da82611255565b91506114e583611255565b92508282019050808211156114fd576114fc6114a0565b5b92915050565b600061150e82611255565b915061151983611255565b9250828203905081811115611531576115306114a0565b5b92915050565b7f4e487b7100000000000000000000000000000000000000000000000000000000600052603260045260246000fd5b600061157182611255565b915061157c83611255565b925082820261158a81611255565b915082820484148315176115a1576115a06114a0565b5b509291505056fea26469706673582212206c2bfa956168406a49a07abea2070a0549d641ff3b9f53cadd6ee6b5409ed3c564736f6c63430008110033",
  "immutableReferences": {},
  "source": "pragma solidity >=0.8.0;\n\nimport \"./leaves.sol\";\n\ncontract Moneytrees is Leaves {\n    struct Plant {\n        uint id;\n        bool watered;\n        uint growthStage;\n        uint feedAmount;\n        uint lastWatered;\n    }\n    mapping (address => uint) ownerPlant;\n    mapping(address => uint) cooldowns;\n\n    modifier ownsPlant() {\n        require(ownerPlant[msg.sender] != 0, \"User must have a plant\");\n        _;\n    }\n\n    Plant[] plants;\n    function createPlant() public returns (bool success) {\n        require(ownerPlant[msg.sender] == 0,\"User already has plant\");\n        uint newId = plants.length + 1;\n        Plant memory newPlant = Plant(newId,false,0,0,0);\n        plants.push(newPlant);\n        ownerPlant[msg.sender] = newId;\n        return true;\n    }\n    function hasPlant() public view returns (bool) {\n        return ownerPlant[msg.sender] != 0;\n    }\n    function waterPlant() public ownsPlant returns (bool success) {\n        require(block.timestamp >= cooldowns[msg.sender]);\n        cooldowns[msg.sender] = block.timestamp + 1 days;\n        uint id = ownerPlant[msg.sender];\n        Plant storage currentPlant = plants[id - 1];\n        currentPlant.watered = true;\n        currentPlant.lastWatered = block.timestamp;\n        getDailyCoins();\n        return true;\n    }\n    function canWater() public view ownsPlant returns (bool) {\n        return cooldowns[msg.sender] <= block.timestamp;\n    }\n    function getCooldown() public view ownsPlant returns (uint) {\n        return cooldowns[msg.sender];\n    }\n    function feedPlant() public ownsPlant returns (bool success) {\n        spend(msg.sender, 1);\n        uint id = ownerPlant[msg.sender];\n        Plant storage currentPlant = plants[id - 1];\n        currentPlant.feedAmount += 1;\n        if (currentPlant.feedAmount == (currentPlant.growthStage + 1) * 5) {\n            currentPlant.growthStage += 1;\n            if (currentPlant.growthStage > 4) {\n                currentPlant.growthStage = 4;\n            }\n            currentPlant.feedAmount = 0;\n        }\n        return true;\n    }\n    function resetPlant() public ownsPlant returns (bool success) {\n        uint id = ownerPlant[msg.sender];\n        Plant storage currentPlant = plants[id - 1];\n        currentPlant.growthStage = 0;\n        currentPlant.feedAmount = 0;\n        currentPlant.lastWatered = 0;\n        currentPlant.watered = false;\n        cooldowns[msg.sender] = 0;\n        return true;\n    }\n    function getPlantWatered() public view returns (bool) {\n        return plants[ownerPlant[msg.sender] - 1].watered;\n    }\n    function getPlantGrowth() public view returns (uint) {\n        return plants[ownerPlant[msg.sender] - 1].growthStage;\n    }\n    function getPlantFeed() public view returns (uint) {\n        return plants[ownerPlant[msg.sender] - 1].feedAmount;\n    }\n    function getPlantLastWatered() public view returns (uint) {\n        return plants[ownerPlant[msg.sender] - 1].lastWatered;\n    }\n    function getPlantId() public view returns (uint) {\n        return plants[ownerPlant[msg.sender] - 1].id;\n    }\n}",
  "sourcePath": "/Users/jackrathbone/Documents/durhack/moneytree/blockchain/contracts/contracts/moneytree.sol",
  "compiler": {
    "name": "solc",
    "version": "0.8.17+commit.8df45f5f.Emscripten.clang"
  },
  "schemaVersion": "3.4.10",
  "updatedAt": "2022-11-20T04:06:43.361Z",
  "devdoc": {
    "kind": "dev",
    "methods": {},
    "version": 1
  },
  "userdoc": {
    "kind": "user",
    "methods": {},
    "version": 1
  }
}