{
  "contractName": "Moneytrees",
  "abi": [
    {
      "inputs": [],
      "name": "balanceOf",
      "outputs": [
        {
          "internalType": "uint256",
          "name": "",
          "type": "uint256"
        }
      ],
      "stateMutability": "view",
      "type": "function"
    },
    {
      "inputs": [],
      "name": "name",
      "outputs": [
        {
          "internalType": "string",
          "name": "",
          "type": "string"
        }
      ],
      "stateMutability": "pure",
      "type": "function"
    },
    {
      "inputs": [
        {
          "internalType": "address",
          "name": "_to",
          "type": "address"
        },
        {
          "internalType": "uint256",
          "name": "_value",
          "type": "uint256"
        }
      ],
      "name": "transferTo",
      "outputs": [
        {
          "internalType": "bool",
          "name": "success",
          "type": "bool"
        }
      ],
      "stateMutability": "nonpayable",
      "type": "function"
    },
    {
      "inputs": [],
      "name": "createPlant",
      "outputs": [
        {
          "internalType": "bool",
          "name": "success",
          "type": "bool"
        }
      ],
      "stateMutability": "nonpayable",
      "type": "function"
    },
    {
      "inputs": [],
      "name": "hasPlant",
      "outputs": [
        {
          "internalType": "bool",
          "name": "",
          "type": "bool"
        }
      ],
      "stateMutability": "view",
      "type": "function"
    },
    {
      "inputs": [],
      "name": "waterPlant",
      "outputs": [
        {
          "internalType": "bool",
          "name": "success",
          "type": "bool"
        }
      ],
      "stateMutability": "nonpayable",
      "type": "function"
    },
    {
      "inputs": [],
      "name": "canWater",
      "outputs": [
        {
          "internalType": "bool",
          "name": "",
          "type": "bool"
        }
      ],
      "stateMutability": "view",
      "type": "function"
    },
    {
      "inputs": [],
      "name": "getCooldown",
      "outputs": [
        {
          "internalType": "uint256",
          "name": "",
          "type": "uint256"
        }
      ],
      "stateMutability": "view",
      "type": "function"
    },
    {
      "inputs": [],
      "name": "feedPlant",
      "outputs": [
        {
          "internalType": "bool",
          "name": "success",
          "type": "bool"
        }
      ],
      "stateMutability": "nonpayable",
      "type": "function"
    },
    {
      "inputs": [],
      "name": "resetPlant",
      "outputs": [
        {
          "internalType": "bool",
          "name": "success",
          "type": "bool"
        }
      ],
      "stateMutability": "nonpayable",
      "type": "function"
    },
    {
      "inputs": [],
      "name": "getPlantWatered",
      "outputs": [
        {
          "internalType": "bool",
          "name": "",
          "type": "bool"
        }
      ],
      "stateMutability": "view",
      "type": "function"
    },
    {
      "inputs": [],
      "name": "getPlantGrowth",
      "outputs": [
        {
          "internalType": "uint256",
          "name": "",
          "type": "uint256"
        }
      ],
      "stateMutability": "view",
      "type": "function"
    },
    {
      "inputs": [],
      "name": "getPlantFeed",
      "outputs": [
        {
          "internalType": "uint256",
          "name": "",
          "type": "uint256"
        }
      ],
      "stateMutability": "view",
      "type": "function"
    },
    {
      "inputs": [],
      "name": "getPlantLastWatered",
      "outputs": [
        {
          "internalType": "uint256",
          "name": "",
          "type": "uint256"
        }
      ],
      "stateMutability": "view",
      "type": "function"
    }
  ],
  "bytecode": "0x608060405234801561001057600080fd5b50611324806100206000396000f3fe608060405234801561001057600080fd5b50600436106100ea5760003560e01c8063a82cdf2c1161008c578063cb5e630611610066578063cb5e63061461022d578063e6510e541461024b578063ea62951614610269578063eab4f15114610287576100ea565b8063a82cdf2c146101d3578063b2eb53a1146101f1578063c20ba1c61461020f576100ea565b806364828738116100c8578063648287381461015b578063722713f71461017957806375ffcee214610197578063833d4993146101b5576100ea565b806306fdde03146100ef578063218e4a151461010d5780632ccb1b301461012b575b600080fd5b6100f76102a5565b6040516101049190610fb3565b60405180910390f35b6101156102e2565b6040516101229190610fee565b60405180910390f35b61014560048036038101906101409190611098565b6103aa565b60405161015291906110f3565b60405180910390f35b6101636104ab565b60405161017091906110f3565b60405180910390f35b610181610638565b60405161018e9190610fee565b60405180910390f35b61019f61067e565b6040516101ac91906110f3565b60405180910390f35b6101bd6106c8565b6040516101ca91906110f3565b60405180910390f35b6101db61074c565b6040516101e891906110f3565b60405180910390f35b6101f9610817565b60405161020691906110f3565b60405180910390f35b6102176109e6565b6040516102249190610fee565b60405180910390f35b610235610a5d565b60405161024291906110f3565b60405180910390f35b610253610b9a565b60405161026091906110f3565b60405180910390f35b610271610d2a565b60405161027e9190610fee565b60405180910390f35b61028f610da1565b60405161029c9190610fee565b60405180910390f35b60606040518060400160405280600681526020017f4c65617665730000000000000000000000000000000000000000000000000000815250905090565b600080600160003373ffffffffffffffffffffffffffffffffffffffff1673ffffffffffffffffffffffffffffffffffffffff1681526020019081526020016000205403610365576040517f08c379a000000000000000000000000000000000000000000000000000000000815260040161035c9061115a565b60405180910390fd5b600260003373ffffffffffffffffffffffffffffffffffffffff1673ffffffffffffffffffffffffffffffffffffffff16815260200190815260200160002054905090565b6000816000803373ffffffffffffffffffffffffffffffffffffffff1673ffffffffffffffffffffffffffffffffffffffff1681526020019081526020016000205410156103f757600080fd5b816000803373ffffffffffffffffffffffffffffffffffffffff1673ffffffffffffffffffffffffffffffffffffffff168152602001908152602001600020600082825461044591906111a9565b92505081905550816000808573ffffffffffffffffffffffffffffffffffffffff1673ffffffffffffffffffffffffffffffffffffffff168152602001908152602001600020600082825461049a91906111dd565b925050819055506001905092915050565b600080600160003373ffffffffffffffffffffffffffffffffffffffff1673ffffffffffffffffffffffffffffffffffffffff168152602001908152602001600020541461052e576040517f08c379a00000000000000000000000000000000000000000000000000000000081526004016105259061125d565b60405180910390fd5b6000600160038054905061054291906111dd565b905060006040518060a0016040528083815260200160001515815260200160008152602001600081526020016000815250905060038190806001815401808255809150506001900390600052602060002090600502016000909190919091506000820151816000015560208201518160010160006101000a81548160ff021916908315150217905550604082015181600201556060820151816003015560808201518160040155505081600160003373ffffffffffffffffffffffffffffffffffffffff1673ffffffffffffffffffffffffffffffffffffffff1681526020019081526020016000208190555060019250505090565b60008060003373ffffffffffffffffffffffffffffffffffffffff1673ffffffffffffffffffffffffffffffffffffffff16815260200190815260200160002054905090565b600080600160003373ffffffffffffffffffffffffffffffffffffffff1673ffffffffffffffffffffffffffffffffffffffff168152602001908152602001600020541415905090565b6000600360018060003373ffffffffffffffffffffffffffffffffffffffff1673ffffffffffffffffffffffffffffffffffffffff1681526020019081526020016000205461071791906111a9565b815481106107285761072761127d565b5b906000526020600020906005020160010160009054906101000a900460ff16905090565b600080600160003373ffffffffffffffffffffffffffffffffffffffff1673ffffffffffffffffffffffffffffffffffffffff16815260200190815260200160002054036107cf576040517f08c379a00000000000000000000000000000000000000000000000000000000081526004016107c69061115a565b60405180910390fd5b42600260003373ffffffffffffffffffffffffffffffffffffffff1673ffffffffffffffffffffffffffffffffffffffff168152602001908152602001600020541115905090565b600080600160003373ffffffffffffffffffffffffffffffffffffffff1673ffffffffffffffffffffffffffffffffffffffff168152602001908152602001600020540361089a576040517f08c379a00000000000000000000000000000000000000000000000000000000081526004016108919061115a565b60405180910390fd5b600260003373ffffffffffffffffffffffffffffffffffffffff1673ffffffffffffffffffffffffffffffffffffffff168152602001908152602001600020544210156108e657600080fd5b62015180426108f591906111dd565b600260003373ffffffffffffffffffffffffffffffffffffffff1673ffffffffffffffffffffffffffffffffffffffff168152602001908152602001600020819055506000600160003373ffffffffffffffffffffffffffffffffffffffff1673ffffffffffffffffffffffffffffffffffffffff1681526020019081526020016000205490506000600360018361098d91906111a9565b8154811061099e5761099d61127d565b5b9060005260206000209060050201905060018160010160006101000a81548160ff0219169083151502179055504281600401819055506109dc610e18565b5060019250505090565b6000600360018060003373ffffffffffffffffffffffffffffffffffffffff1673ffffffffffffffffffffffffffffffffffffffff16815260200190815260200160002054610a3591906111a9565b81548110610a4657610a4561127d565b5b906000526020600020906005020160040154905090565b600080600160003373ffffffffffffffffffffffffffffffffffffffff1673ffffffffffffffffffffffffffffffffffffffff1681526020019081526020016000205403610ae0576040517f08c379a0000000000000000000000000000000000000000000000000000000008152600401610ad79061115a565b60405180910390fd5b6000600160003373ffffffffffffffffffffffffffffffffffffffff1673ffffffffffffffffffffffffffffffffffffffff16815260200190815260200160002054905060006003600183610b3591906111a9565b81548110610b4657610b4561127d565b5b9060005260206000209060050201905060008160020181905550600081600301819055506000816004018190555060008160010160006101000a81548160ff02191690831515021790555060019250505090565b600080600160003373ffffffffffffffffffffffffffffffffffffffff1673ffffffffffffffffffffffffffffffffffffffff1681526020019081526020016000205403610c1d576040517f08c379a0000000000000000000000000000000000000000000000000000000008152600401610c149061115a565b60405180910390fd5b610c28336001610e77565b506000600160003373ffffffffffffffffffffffffffffffffffffffff1673ffffffffffffffffffffffffffffffffffffffff16815260200190815260200160002054905060006003600183610c7e91906111a9565b81548110610c8f57610c8e61127d565b5b906000526020600020906005020190506001816003016000828254610cb491906111dd565b92505081905550600560018260020154610cce91906111dd565b610cd891906112ac565b816003015403610d21576001816002016000828254610cf791906111dd565b92505081905550600481600201541115610d1657600481600201819055505b600081600301819055505b60019250505090565b6000600360018060003373ffffffffffffffffffffffffffffffffffffffff1673ffffffffffffffffffffffffffffffffffffffff16815260200190815260200160002054610d7991906111a9565b81548110610d8a57610d8961127d565b5b906000526020600020906005020160020154905090565b6000600360018060003373ffffffffffffffffffffffffffffffffffffffff1673ffffffffffffffffffffffffffffffffffffffff16815260200190815260200160002054610df091906111a9565b81548110610e0157610e0061127d565b5b906000526020600020906005020160030154905090565b600060026000803373ffffffffffffffffffffffffffffffffffffffff1673ffffffffffffffffffffffffffffffffffffffff1681526020019081526020016000206000828254610e6991906111dd565b925050819055506001905090565b6000816000808573ffffffffffffffffffffffffffffffffffffffff1673ffffffffffffffffffffffffffffffffffffffff168152602001908152602001600020541015610ec457600080fd5b816000808573ffffffffffffffffffffffffffffffffffffffff1673ffffffffffffffffffffffffffffffffffffffff1681526020019081526020016000206000828254610f1291906111a9565b925050819055506001905092915050565b600081519050919050565b600082825260208201905092915050565b60005b83811015610f5d578082015181840152602081019050610f42565b60008484015250505050565b6000601f19601f8301169050919050565b6000610f8582610f23565b610f8f8185610f2e565b9350610f9f818560208601610f3f565b610fa881610f69565b840191505092915050565b60006020820190508181036000830152610fcd8184610f7a565b905092915050565b6000819050919050565b610fe881610fd5565b82525050565b60006020820190506110036000830184610fdf565b92915050565b600080fd5b600073ffffffffffffffffffffffffffffffffffffffff82169050919050565b60006110398261100e565b9050919050565b6110498161102e565b811461105457600080fd5b50565b60008135905061106681611040565b92915050565b61107581610fd5565b811461108057600080fd5b50565b6000813590506110928161106c565b92915050565b600080604083850312156110af576110ae611009565b5b60006110bd85828601611057565b92505060206110ce85828601611083565b9150509250929050565b60008115159050919050565b6110ed816110d8565b82525050565b600060208201905061110860008301846110e4565b92915050565b7f55736572206d7573742068617665206120706c616e7400000000000000000000600082015250565b6000611144601683610f2e565b915061114f8261110e565b602082019050919050565b6000602082019050818103600083015261117381611137565b9050919050565b7f4e487b7100000000000000000000000000000000000000000000000000000000600052601160045260246000fd5b60006111b482610fd5565b91506111bf83610fd5565b92508282039050818111156111d7576111d661117a565b5b92915050565b60006111e882610fd5565b91506111f383610fd5565b925082820190508082111561120b5761120a61117a565b5b92915050565b7f5573657220616c72656164792068617320706c616e7400000000000000000000600082015250565b6000611247601683610f2e565b915061125282611211565b602082019050919050565b600060208201905081810360008301526112768161123a565b9050919050565b7f4e487b7100000000000000000000000000000000000000000000000000000000600052603260045260246000fd5b60006112b782610fd5565b91506112c283610fd5565b92508282026112d081610fd5565b915082820484148315176112e7576112e661117a565b5b509291505056fea26469706673582212202be22f1f5a896ec319f88039f728d193fcbaf2c9e9d659ff8eadc3341df40a5364736f6c63430008110033",
  "immutableReferences": {},
  "source": "pragma solidity >=0.8.0;\n\nimport \"./leaves.sol\";\n\ncontract Moneytrees is Leaves {\n    struct Plant {\n        uint id;\n        bool watered;\n        uint growthStage;\n        uint feedAmount;\n        uint lastWatered;\n    }\n    mapping (address => uint) ownerPlant;\n    mapping(address => uint) cooldowns;\n\n    modifier ownsPlant() {\n        require(ownerPlant[msg.sender] != 0, \"User must have a plant\");\n        _;\n    }\n\n    Plant[] plants;\n    function createPlant() public returns (bool success) {\n        require(ownerPlant[msg.sender] == 0,\"User already has plant\");\n        uint newId = plants.length + 1;\n        Plant memory newPlant = Plant(newId,false,0,0,0);\n        plants.push(newPlant);\n        ownerPlant[msg.sender] = newId;\n        return true;\n    }\n    function hasPlant() public view returns (bool) {\n        return ownerPlant[msg.sender] != 0;\n    }\n    function waterPlant() public ownsPlant returns (bool success) {\n        require(block.timestamp >= cooldowns[msg.sender]);\n        cooldowns[msg.sender] = block.timestamp + 1 days;\n        uint id = ownerPlant[msg.sender];\n        Plant storage currentPlant = plants[id - 1];\n        currentPlant.watered = true;\n        currentPlant.lastWatered = block.timestamp;\n        getDailyCoins();\n        return true;\n    }\n    function canWater() public view ownsPlant returns (bool) {\n        return cooldowns[msg.sender] <= block.timestamp;\n    }\n    function getCooldown() public view ownsPlant returns (uint) {\n        return cooldowns[msg.sender];\n    }\n    function feedPlant() public ownsPlant returns (bool success) {\n        spend(msg.sender, 1);\n        uint id = ownerPlant[msg.sender];\n        Plant storage currentPlant = plants[id - 1];\n        currentPlant.feedAmount += 1;\n        if (currentPlant.feedAmount == (currentPlant.growthStage + 1) * 5) {\n            currentPlant.growthStage += 1;\n            if (currentPlant.growthStage > 4) {\n                currentPlant.growthStage = 4;\n            }\n            currentPlant.feedAmount = 0;\n        }\n        return true;\n    }\n    function resetPlant() public ownsPlant returns (bool success) {\n        uint id = ownerPlant[msg.sender];\n        Plant storage currentPlant = plants[id - 1];\n        currentPlant.growthStage = 0;\n        currentPlant.feedAmount = 0;\n        currentPlant.lastWatered = 0;\n        currentPlant.watered = false;\n        return true;\n    }\n    function getPlantWatered() public view returns (bool) {\n        return plants[ownerPlant[msg.sender] - 1].watered;\n    }\n    function getPlantGrowth() public view returns (uint) {\n        return plants[ownerPlant[msg.sender] - 1].growthStage;\n    }\n    function getPlantFeed() public view returns (uint) {\n        return plants[ownerPlant[msg.sender] - 1].feedAmount;\n    }\n    function getPlantLastWatered() public view returns (uint) {\n        return plants[ownerPlant[msg.sender] - 1].lastWatered;\n    }\n}",
  "sourcePath": "/Users/jackrathbone/Documents/durhack/moneytree/blockchain/contracts/contracts/moneytree.sol",
  "compiler": {
    "name": "solc",
    "version": "0.8.17+commit.8df45f5f.Emscripten.clang"
  },
  "schemaVersion": "3.4.10",
  "updatedAt": "2022-11-19T23:57:52.121Z",
  "devdoc": {
    "kind": "dev",
    "methods": {},
    "version": 1
  },
  "userdoc": {
    "kind": "user",
    "methods": {},
    "version": 1
  }
}