{
  "contractName": "Moneytrees",
  "abi": [
    {
      "inputs": [],
      "name": "balanceOf",
      "outputs": [
        {
          "internalType": "uint256",
          "name": "",
          "type": "uint256"
        }
      ],
      "stateMutability": "view",
      "type": "function"
    },
    {
      "inputs": [],
      "name": "buy",
      "outputs": [
        {
          "internalType": "bool",
          "name": "success",
          "type": "bool"
        }
      ],
      "stateMutability": "payable",
      "type": "function"
    },
    {
      "inputs": [],
      "name": "donate",
      "outputs": [
        {
          "internalType": "bool",
          "name": "success",
          "type": "bool"
        }
      ],
      "stateMutability": "nonpayable",
      "type": "function"
    },
    {
      "inputs": [],
      "name": "getAddress",
      "outputs": [
        {
          "internalType": "address",
          "name": "",
          "type": "address"
        }
      ],
      "stateMutability": "view",
      "type": "function"
    },
    {
      "inputs": [],
      "name": "name",
      "outputs": [
        {
          "internalType": "string",
          "name": "",
          "type": "string"
        }
      ],
      "stateMutability": "pure",
      "type": "function"
    },
    {
      "inputs": [
        {
          "internalType": "address",
          "name": "_to",
          "type": "address"
        },
        {
          "internalType": "uint32",
          "name": "_value",
          "type": "uint32"
        }
      ],
      "name": "transferTo",
      "outputs": [
        {
          "internalType": "bool",
          "name": "success",
          "type": "bool"
        }
      ],
      "stateMutability": "nonpayable",
      "type": "function"
    },
    {
      "inputs": [],
      "name": "createPlant",
      "outputs": [
        {
          "internalType": "bool",
          "name": "success",
          "type": "bool"
        }
      ],
      "stateMutability": "nonpayable",
      "type": "function"
    },
    {
      "inputs": [],
      "name": "hasPlant",
      "outputs": [
        {
          "internalType": "bool",
          "name": "",
          "type": "bool"
        }
      ],
      "stateMutability": "view",
      "type": "function"
    },
    {
      "inputs": [],
      "name": "waterPlant",
      "outputs": [
        {
          "internalType": "bool",
          "name": "success",
          "type": "bool"
        }
      ],
      "stateMutability": "nonpayable",
      "type": "function"
    },
    {
      "inputs": [],
      "name": "canWater",
      "outputs": [
        {
          "internalType": "bool",
          "name": "",
          "type": "bool"
        }
      ],
      "stateMutability": "view",
      "type": "function"
    },
    {
      "inputs": [],
      "name": "getCooldown",
      "outputs": [
        {
          "internalType": "uint256",
          "name": "",
          "type": "uint256"
        }
      ],
      "stateMutability": "view",
      "type": "function"
    },
    {
      "inputs": [],
      "name": "feedPlant",
      "outputs": [
        {
          "internalType": "bool",
          "name": "success",
          "type": "bool"
        }
      ],
      "stateMutability": "nonpayable",
      "type": "function"
    },
    {
      "inputs": [],
      "name": "resetPlant",
      "outputs": [
        {
          "internalType": "bool",
          "name": "success",
          "type": "bool"
        }
      ],
      "stateMutability": "nonpayable",
      "type": "function"
    },
    {
      "inputs": [],
      "name": "getPlantWatered",
      "outputs": [
        {
          "internalType": "bool",
          "name": "",
          "type": "bool"
        }
      ],
      "stateMutability": "view",
      "type": "function"
    },
    {
      "inputs": [],
      "name": "getPlantGrowth",
      "outputs": [
        {
          "internalType": "uint256",
          "name": "",
          "type": "uint256"
        }
      ],
      "stateMutability": "view",
      "type": "function"
    },
    {
      "inputs": [],
      "name": "getPlantFeed",
      "outputs": [
        {
          "internalType": "uint256",
          "name": "",
          "type": "uint256"
        }
      ],
      "stateMutability": "view",
      "type": "function"
    },
    {
      "inputs": [],
      "name": "getPlantLastWatered",
      "outputs": [
        {
          "internalType": "uint256",
          "name": "",
          "type": "uint256"
        }
      ],
      "stateMutability": "view",
      "type": "function"
    },
    {
      "inputs": [],
      "name": "getPlantId",
      "outputs": [
        {
          "internalType": "uint256",
          "name": "",
          "type": "uint256"
        }
      ],
      "stateMutability": "view",
      "type": "function"
    }
  ],
  "bytecode": "0x608060405234801561001057600080fd5b506116bf806100206000396000f3fe6080604052600436106101095760003560e01c8063a82cdf2c11610095578063ccb767ae11610064578063ccb767ae14610330578063e6510e541461036d578063ea62951614610398578063eab4f151146103c3578063ed88c68e146103ee57610109565b8063a82cdf2c14610284578063b2eb53a1146102af578063c20ba1c6146102da578063cb5e63061461030557610109565b8063722713f7116100dc578063722713f7146101ba57806375ffcee2146101e5578063833d49931461021057806399cf81271461023b578063a6f2ae3a1461026657610109565b806306fdde031461010e578063218e4a151461013957806338cc483114610164578063648287381461018f575b600080fd5b34801561011a57600080fd5b50610123610419565b6040516101309190611314565b60405180910390f35b34801561014557600080fd5b5061014e610456565b60405161015b919061134f565b60405180910390f35b34801561017057600080fd5b5061017961051e565b60405161018691906113ab565b60405180910390f35b34801561019b57600080fd5b506101a4610526565b6040516101b191906113e1565b60405180910390f35b3480156101c657600080fd5b506101cf6106b3565b6040516101dc919061134f565b60405180910390f35b3480156101f157600080fd5b506101fa6106f9565b60405161020791906113e1565b60405180910390f35b34801561021c57600080fd5b50610225610743565b60405161023291906113e1565b60405180910390f35b34801561024757600080fd5b506102506107c7565b60405161025d919061134f565b60405180910390f35b61026e61083e565b60405161027b91906113e1565b60405180910390f35b34801561029057600080fd5b506102996108aa565b6040516102a691906113e1565b60405180910390f35b3480156102bb57600080fd5b506102c4610975565b6040516102d191906113e1565b60405180910390f35b3480156102e657600080fd5b506102ef610b44565b6040516102fc919061134f565b60405180910390f35b34801561031157600080fd5b5061031a610bbb565b60405161032791906113e1565b60405180910390f35b34801561033c57600080fd5b5061035760048036038101906103529190611469565b610d3d565b60405161036491906113e1565b60405180910390f35b34801561037957600080fd5b50610382610e50565b60405161038f91906113e1565b60405180910390f35b3480156103a457600080fd5b506103ad610fe0565b6040516103ba919061134f565b60405180910390f35b3480156103cf57600080fd5b506103d8611057565b6040516103e5919061134f565b60405180910390f35b3480156103fa57600080fd5b506104036110ce565b60405161041091906113e1565b60405180910390f35b60606040518060400160405280600681526020017f4c65617665730000000000000000000000000000000000000000000000000000815250905090565b600080600160003373ffffffffffffffffffffffffffffffffffffffff1673ffffffffffffffffffffffffffffffffffffffff16815260200190815260200160002054036104d9576040517f08c379a00000000000000000000000000000000000000000000000000000000081526004016104d0906114f5565b60405180910390fd5b600260003373ffffffffffffffffffffffffffffffffffffffff1673ffffffffffffffffffffffffffffffffffffffff16815260200190815260200160002054905090565b600033905090565b600080600160003373ffffffffffffffffffffffffffffffffffffffff1673ffffffffffffffffffffffffffffffffffffffff16815260200190815260200160002054146105a9576040517f08c379a00000000000000000000000000000000000000000000000000000000081526004016105a090611561565b60405180910390fd5b600060016003805490506105bd91906115b0565b905060006040518060a0016040528083815260200160001515815260200160008152602001600081526020016000815250905060038190806001815401808255809150506001900390600052602060002090600502016000909190919091506000820151816000015560208201518160010160006101000a81548160ff021916908315150217905550604082015181600201556060820151816003015560808201518160040155505081600160003373ffffffffffffffffffffffffffffffffffffffff1673ffffffffffffffffffffffffffffffffffffffff1681526020019081526020016000208190555060019250505090565b60008060003373ffffffffffffffffffffffffffffffffffffffff1673ffffffffffffffffffffffffffffffffffffffff16815260200190815260200160002054905090565b600080600160003373ffffffffffffffffffffffffffffffffffffffff1673ffffffffffffffffffffffffffffffffffffffff168152602001908152602001600020541415905090565b6000600360018060003373ffffffffffffffffffffffffffffffffffffffff1673ffffffffffffffffffffffffffffffffffffffff1681526020019081526020016000205461079291906115e4565b815481106107a3576107a2611618565b5b906000526020600020906005020160010160009054906101000a900460ff16905090565b6000600360018060003373ffffffffffffffffffffffffffffffffffffffff1673ffffffffffffffffffffffffffffffffffffffff1681526020019081526020016000205461081691906115e4565b8154811061082757610826611618565b5b906000526020600020906005020160000154905090565b60008034101561084d57600080fd5b60016000803373ffffffffffffffffffffffffffffffffffffffff1673ffffffffffffffffffffffffffffffffffffffff168152602001908152602001600020600082825461089c91906115b0565b925050819055506001905090565b600080600160003373ffffffffffffffffffffffffffffffffffffffff1673ffffffffffffffffffffffffffffffffffffffff168152602001908152602001600020540361092d576040517f08c379a0000000000000000000000000000000000000000000000000000000008152600401610924906114f5565b60405180910390fd5b42600260003373ffffffffffffffffffffffffffffffffffffffff1673ffffffffffffffffffffffffffffffffffffffff168152602001908152602001600020541115905090565b600080600160003373ffffffffffffffffffffffffffffffffffffffff1673ffffffffffffffffffffffffffffffffffffffff16815260200190815260200160002054036109f8576040517f08c379a00000000000000000000000000000000000000000000000000000000081526004016109ef906114f5565b60405180910390fd5b600260003373ffffffffffffffffffffffffffffffffffffffff1673ffffffffffffffffffffffffffffffffffffffff16815260200190815260200160002054421015610a4457600080fd5b6201518042610a5391906115b0565b600260003373ffffffffffffffffffffffffffffffffffffffff1673ffffffffffffffffffffffffffffffffffffffff168152602001908152602001600020819055506000600160003373ffffffffffffffffffffffffffffffffffffffff1673ffffffffffffffffffffffffffffffffffffffff16815260200190815260200160002054905060006003600183610aeb91906115e4565b81548110610afc57610afb611618565b5b9060005260206000209060050201905060018160010160006101000a81548160ff021916908315150217905550428160040181905550610b3a611179565b5060019250505090565b6000600360018060003373ffffffffffffffffffffffffffffffffffffffff1673ffffffffffffffffffffffffffffffffffffffff16815260200190815260200160002054610b9391906115e4565b81548110610ba457610ba3611618565b5b906000526020600020906005020160040154905090565b600080600160003373ffffffffffffffffffffffffffffffffffffffff1673ffffffffffffffffffffffffffffffffffffffff1681526020019081526020016000205403610c3e576040517f08c379a0000000000000000000000000000000000000000000000000000000008152600401610c35906114f5565b60405180910390fd5b6000600160003373ffffffffffffffffffffffffffffffffffffffff1673ffffffffffffffffffffffffffffffffffffffff16815260200190815260200160002054905060006003600183610c9391906115e4565b81548110610ca457610ca3611618565b5b9060005260206000209060050201905060008160020181905550600081600301819055506000816004018190555060008160010160006101000a81548160ff0219169083151502179055506000600260003373ffffffffffffffffffffffffffffffffffffffff1673ffffffffffffffffffffffffffffffffffffffff1681526020019081526020016000208190555060019250505090565b60008163ffffffff166000803373ffffffffffffffffffffffffffffffffffffffff1673ffffffffffffffffffffffffffffffffffffffff168152602001908152602001600020541015610d9057600080fd5b8163ffffffff166000803373ffffffffffffffffffffffffffffffffffffffff1673ffffffffffffffffffffffffffffffffffffffff1681526020019081526020016000206000828254610de491906115e4565b925050819055508163ffffffff166000808573ffffffffffffffffffffffffffffffffffffffff1673ffffffffffffffffffffffffffffffffffffffff1681526020019081526020016000206000828254610e3f91906115b0565b925050819055506001905092915050565b600080600160003373ffffffffffffffffffffffffffffffffffffffff1673ffffffffffffffffffffffffffffffffffffffff1681526020019081526020016000205403610ed3576040517f08c379a0000000000000000000000000000000000000000000000000000000008152600401610eca906114f5565b60405180910390fd5b610ede3360016111d8565b506000600160003373ffffffffffffffffffffffffffffffffffffffff1673ffffffffffffffffffffffffffffffffffffffff16815260200190815260200160002054905060006003600183610f3491906115e4565b81548110610f4557610f44611618565b5b906000526020600020906005020190506001816003016000828254610f6a91906115b0565b92505081905550600560018260020154610f8491906115b0565b610f8e9190611647565b816003015403610fd7576001816002016000828254610fad91906115b0565b92505081905550600481600201541115610fcc57600481600201819055505b600081600301819055505b60019250505090565b6000600360018060003373ffffffffffffffffffffffffffffffffffffffff1673ffffffffffffffffffffffffffffffffffffffff1681526020019081526020016000205461102f91906115e4565b815481106110405761103f611618565b5b906000526020600020906005020160020154905090565b6000600360018060003373ffffffffffffffffffffffffffffffffffffffff1673ffffffffffffffffffffffffffffffffffffffff168152602001908152602001600020546110a691906115e4565b815481106110b7576110b6611618565b5b906000526020600020906005020160030154905090565b600060016000803373ffffffffffffffffffffffffffffffffffffffff1673ffffffffffffffffffffffffffffffffffffffff16815260200190815260200160002054101561111c57600080fd5b60016000803373ffffffffffffffffffffffffffffffffffffffff1673ffffffffffffffffffffffffffffffffffffffff168152602001908152602001600020600082825461116b91906115e4565b925050819055506001905090565b600060026000803373ffffffffffffffffffffffffffffffffffffffff1673ffffffffffffffffffffffffffffffffffffffff16815260200190815260200160002060008282546111ca91906115b0565b925050819055506001905090565b6000816000808573ffffffffffffffffffffffffffffffffffffffff1673ffffffffffffffffffffffffffffffffffffffff16815260200190815260200160002054101561122557600080fd5b816000808573ffffffffffffffffffffffffffffffffffffffff1673ffffffffffffffffffffffffffffffffffffffff168152602001908152602001600020600082825461127391906115e4565b925050819055506001905092915050565b600081519050919050565b600082825260208201905092915050565b60005b838110156112be5780820151818401526020810190506112a3565b60008484015250505050565b6000601f19601f8301169050919050565b60006112e682611284565b6112f0818561128f565b93506113008185602086016112a0565b611309816112ca565b840191505092915050565b6000602082019050818103600083015261132e81846112db565b905092915050565b6000819050919050565b61134981611336565b82525050565b60006020820190506113646000830184611340565b92915050565b600073ffffffffffffffffffffffffffffffffffffffff82169050919050565b60006113958261136a565b9050919050565b6113a58161138a565b82525050565b60006020820190506113c0600083018461139c565b92915050565b60008115159050919050565b6113db816113c6565b82525050565b60006020820190506113f660008301846113d2565b92915050565b600080fd5b61140a8161138a565b811461141557600080fd5b50565b60008135905061142781611401565b92915050565b600063ffffffff82169050919050565b6114468161142d565b811461145157600080fd5b50565b6000813590506114638161143d565b92915050565b600080604083850312156114805761147f6113fc565b5b600061148e85828601611418565b925050602061149f85828601611454565b9150509250929050565b7f55736572206d7573742068617665206120706c616e7400000000000000000000600082015250565b60006114df60168361128f565b91506114ea826114a9565b602082019050919050565b6000602082019050818103600083015261150e816114d2565b9050919050565b7f5573657220616c72656164792068617320706c616e7400000000000000000000600082015250565b600061154b60168361128f565b915061155682611515565b602082019050919050565b6000602082019050818103600083015261157a8161153e565b9050919050565b7f4e487b7100000000000000000000000000000000000000000000000000000000600052601160045260246000fd5b60006115bb82611336565b91506115c683611336565b92508282019050808211156115de576115dd611581565b5b92915050565b60006115ef82611336565b91506115fa83611336565b925082820390508181111561161257611611611581565b5b92915050565b7f4e487b7100000000000000000000000000000000000000000000000000000000600052603260045260246000fd5b600061165282611336565b915061165d83611336565b925082820261166b81611336565b9150828204841483151761168257611681611581565b5b509291505056fea2646970667358221220cdd67e788c173334214c850480307cc89e2d9f6c76459cc283b3c61fe637ba3664736f6c63430008110033",
  "immutableReferences": {},
  "source": "pragma solidity >=0.8.0;\n\nimport \"./leaves.sol\";\n\ncontract Moneytrees is Leaves {\n    struct Plant {\n        uint id;\n        bool watered;\n        uint growthStage;\n        uint feedAmount;\n        uint lastWatered;\n    }\n    mapping (address => uint) ownerPlant;\n    mapping(address => uint) cooldowns;\n\n    modifier ownsPlant() {\n        require(ownerPlant[msg.sender] != 0, \"User must have a plant\");\n        _;\n    }\n\n    Plant[] plants;\n    function createPlant() public returns (bool success) {\n        require(ownerPlant[msg.sender] == 0,\"User already has plant\");\n        uint newId = plants.length + 1;\n        Plant memory newPlant = Plant(newId,false,0,0,0);\n        plants.push(newPlant);\n        ownerPlant[msg.sender] = newId;\n        return true;\n    }\n    function hasPlant() public view returns (bool) {\n        return ownerPlant[msg.sender] != 0;\n    }\n    function waterPlant() public ownsPlant returns (bool success) {\n        require(block.timestamp >= cooldowns[msg.sender]);\n        cooldowns[msg.sender] = block.timestamp + 1 days;\n        uint id = ownerPlant[msg.sender];\n        Plant storage currentPlant = plants[id - 1];\n        currentPlant.watered = true;\n        currentPlant.lastWatered = block.timestamp;\n        getDailyCoins();\n        return true;\n    }\n    function canWater() public view ownsPlant returns (bool) {\n        return cooldowns[msg.sender] <= block.timestamp;\n    }\n    function getCooldown() public view ownsPlant returns (uint) {\n        return cooldowns[msg.sender];\n    }\n    function feedPlant() public ownsPlant returns (bool success) {\n        spend(msg.sender, 1);\n        uint id = ownerPlant[msg.sender];\n        Plant storage currentPlant = plants[id - 1];\n        currentPlant.feedAmount += 1;\n        if (currentPlant.feedAmount == (currentPlant.growthStage + 1) * 5) {\n            currentPlant.growthStage += 1;\n            if (currentPlant.growthStage > 4) {\n                currentPlant.growthStage = 4;\n            }\n            currentPlant.feedAmount = 0;\n        }\n        return true;\n    }\n    function resetPlant() public ownsPlant returns (bool success) {\n        uint id = ownerPlant[msg.sender];\n        Plant storage currentPlant = plants[id - 1];\n        currentPlant.growthStage = 0;\n        currentPlant.feedAmount = 0;\n        currentPlant.lastWatered = 0;\n        currentPlant.watered = false;\n        cooldowns[msg.sender] = 0;\n        return true;\n    }\n    function getPlantWatered() public view returns (bool) {\n        return plants[ownerPlant[msg.sender] - 1].watered;\n    }\n    function getPlantGrowth() public view returns (uint) {\n        return plants[ownerPlant[msg.sender] - 1].growthStage;\n    }\n    function getPlantFeed() public view returns (uint) {\n        return plants[ownerPlant[msg.sender] - 1].feedAmount;\n    }\n    function getPlantLastWatered() public view returns (uint) {\n        return plants[ownerPlant[msg.sender] - 1].lastWatered;\n    }\n    function getPlantId() public view returns (uint) {\n        return plants[ownerPlant[msg.sender] - 1].id;\n    }\n}",
  "sourcePath": "/Users/jackrathbone/Documents/durhack/moneytree/blockchain/contracts/contracts/moneytree.sol",
  "compiler": {
    "name": "solc",
    "version": "0.8.17+commit.8df45f5f.Emscripten.clang"
  },
  "schemaVersion": "3.4.10",
  "updatedAt": "2022-11-20T04:45:28.357Z",
  "devdoc": {
    "kind": "dev",
    "methods": {},
    "version": 1
  },
  "userdoc": {
    "kind": "user",
    "methods": {},
    "version": 1
  }
}