{
  "contractName": "Moneytrees",
  "abi": [
    {
      "inputs": [],
      "name": "balanceOf",
      "outputs": [
        {
          "internalType": "uint256",
          "name": "",
          "type": "uint256"
        }
      ],
      "stateMutability": "view",
      "type": "function"
    },
    {
      "inputs": [],
      "name": "name",
      "outputs": [
        {
          "internalType": "string",
          "name": "",
          "type": "string"
        }
      ],
      "stateMutability": "pure",
      "type": "function"
    },
    {
      "inputs": [
        {
          "internalType": "address",
          "name": "_to",
          "type": "address"
        },
        {
          "internalType": "uint256",
          "name": "_value",
          "type": "uint256"
        }
      ],
      "name": "transferTo",
      "outputs": [
        {
          "internalType": "bool",
          "name": "success",
          "type": "bool"
        }
      ],
      "stateMutability": "nonpayable",
      "type": "function"
    },
    {
      "inputs": [],
      "name": "createPlant",
      "outputs": [
        {
          "internalType": "bool",
          "name": "success",
          "type": "bool"
        }
      ],
      "stateMutability": "nonpayable",
      "type": "function"
    },
    {
      "inputs": [],
      "name": "waterPlant",
      "outputs": [
        {
          "internalType": "bool",
          "name": "success",
          "type": "bool"
        }
      ],
      "stateMutability": "nonpayable",
      "type": "function"
    },
    {
      "inputs": [],
      "name": "feedPlant",
      "outputs": [
        {
          "internalType": "bool",
          "name": "success",
          "type": "bool"
        }
      ],
      "stateMutability": "nonpayable",
      "type": "function"
    },
    {
      "inputs": [],
      "name": "getPlantWatered",
      "outputs": [
        {
          "internalType": "bool",
          "name": "",
          "type": "bool"
        }
      ],
      "stateMutability": "view",
      "type": "function"
    },
    {
      "inputs": [],
      "name": "getPlantGrowth",
      "outputs": [
        {
          "internalType": "uint256",
          "name": "",
          "type": "uint256"
        }
      ],
      "stateMutability": "view",
      "type": "function"
    },
    {
      "inputs": [],
      "name": "getPlantFeed",
      "outputs": [
        {
          "internalType": "uint256",
          "name": "",
          "type": "uint256"
        }
      ],
      "stateMutability": "view",
      "type": "function"
    }
  ],
  "bytecode": "0x608060405234801561001057600080fd5b50610e8a806100206000396000f3fe608060405234801561001057600080fd5b50600436106100935760003560e01c8063833d499311610066578063833d499314610122578063b2eb53a114610140578063e6510e541461015e578063ea6295161461017c578063eab4f1511461019a57610093565b806306fdde03146100985780632ccb1b30146100b657806364828738146100e6578063722713f714610104575b600080fd5b6100a06101b8565b6040516100ad9190610b19565b60405180910390f35b6100d060048036038101906100cb9190610bd4565b6101f5565b6040516100dd9190610c2f565b60405180910390f35b6100ee6102f6565b6040516100fb9190610c2f565b60405180910390f35b61010c610472565b6040516101199190610c59565b60405180910390f35b61012a6104b8565b6040516101379190610c2f565b60405180910390f35b61014861053c565b6040516101559190610c2f565b60405180910390f35b610166610700565b6040516101739190610c2f565b60405180910390f35b610184610890565b6040516101919190610c59565b60405180910390f35b6101a2610907565b6040516101af9190610c59565b60405180910390f35b60606040518060400160405280600681526020017f4c65617665730000000000000000000000000000000000000000000000000000815250905090565b6000816000803373ffffffffffffffffffffffffffffffffffffffff1673ffffffffffffffffffffffffffffffffffffffff16815260200190815260200160002054101561024257600080fd5b816000803373ffffffffffffffffffffffffffffffffffffffff1673ffffffffffffffffffffffffffffffffffffffff16815260200190815260200160002060008282546102909190610ca3565b92505081905550816000808573ffffffffffffffffffffffffffffffffffffffff1673ffffffffffffffffffffffffffffffffffffffff16815260200190815260200160002060008282546102e59190610cd7565b925050819055506001905092915050565b600080600160003373ffffffffffffffffffffffffffffffffffffffff1673ffffffffffffffffffffffffffffffffffffffff1681526020019081526020016000205414610379576040517f08c379a000000000000000000000000000000000000000000000000000000000815260040161037090610d57565b60405180910390fd5b6000600160038054905061038d9190610cd7565b905060006040518060800160405280838152602001600015158152602001600081526020016000815250905060038190806001815401808255809150506001900390600052602060002090600402016000909190919091506000820151816000015560208201518160010160006101000a81548160ff0219169083151502179055506040820151816002015560608201518160030155505081600160003373ffffffffffffffffffffffffffffffffffffffff1673ffffffffffffffffffffffffffffffffffffffff1681526020019081526020016000208190555060019250505090565b60008060003373ffffffffffffffffffffffffffffffffffffffff1673ffffffffffffffffffffffffffffffffffffffff16815260200190815260200160002054905090565b6000600360018060003373ffffffffffffffffffffffffffffffffffffffff1673ffffffffffffffffffffffffffffffffffffffff168152602001908152602001600020546105079190610ca3565b8154811061051857610517610d77565b5b906000526020600020906004020160010160009054906101000a900460ff16905090565b600080600160003373ffffffffffffffffffffffffffffffffffffffff1673ffffffffffffffffffffffffffffffffffffffff16815260200190815260200160002054036105bf576040517f08c379a00000000000000000000000000000000000000000000000000000000081526004016105b690610df2565b60405180910390fd5b600260003373ffffffffffffffffffffffffffffffffffffffff1673ffffffffffffffffffffffffffffffffffffffff1681526020019081526020016000205442101561060b57600080fd5b6014426106189190610cd7565b600260003373ffffffffffffffffffffffffffffffffffffffff1673ffffffffffffffffffffffffffffffffffffffff168152602001908152602001600020819055506000600160003373ffffffffffffffffffffffffffffffffffffffff1673ffffffffffffffffffffffffffffffffffffffff168152602001908152602001600020549050600060036001836106b09190610ca3565b815481106106c1576106c0610d77565b5b9060005260206000209060040201905060018160010160006101000a81548160ff0219169083151502179055506106f661097e565b5060019250505090565b600080600160003373ffffffffffffffffffffffffffffffffffffffff1673ffffffffffffffffffffffffffffffffffffffff1681526020019081526020016000205403610783576040517f08c379a000000000000000000000000000000000000000000000000000000000815260040161077a90610df2565b60405180910390fd5b61078e3360016109dd565b506000600160003373ffffffffffffffffffffffffffffffffffffffff1673ffffffffffffffffffffffffffffffffffffffff168152602001908152602001600020549050600060036001836107e49190610ca3565b815481106107f5576107f4610d77565b5b90600052602060002090600402019050600181600301600082825461081a9190610cd7565b925050819055506005600182600201546108349190610cd7565b61083e9190610e12565b81600301540361088757600181600201600082825461085d9190610cd7565b9250508190555060048160020154111561087c57600481600201819055505b600081600301819055505b60019250505090565b6000600360018060003373ffffffffffffffffffffffffffffffffffffffff1673ffffffffffffffffffffffffffffffffffffffff168152602001908152602001600020546108df9190610ca3565b815481106108f0576108ef610d77565b5b906000526020600020906004020160020154905090565b6000600360018060003373ffffffffffffffffffffffffffffffffffffffff1673ffffffffffffffffffffffffffffffffffffffff168152602001908152602001600020546109569190610ca3565b8154811061096757610966610d77565b5b906000526020600020906004020160030154905090565b600060026000803373ffffffffffffffffffffffffffffffffffffffff1673ffffffffffffffffffffffffffffffffffffffff16815260200190815260200160002060008282546109cf9190610cd7565b925050819055506001905090565b6000816000808573ffffffffffffffffffffffffffffffffffffffff1673ffffffffffffffffffffffffffffffffffffffff168152602001908152602001600020541015610a2a57600080fd5b816000808573ffffffffffffffffffffffffffffffffffffffff1673ffffffffffffffffffffffffffffffffffffffff1681526020019081526020016000206000828254610a789190610ca3565b925050819055506001905092915050565b600081519050919050565b600082825260208201905092915050565b60005b83811015610ac3578082015181840152602081019050610aa8565b60008484015250505050565b6000601f19601f8301169050919050565b6000610aeb82610a89565b610af58185610a94565b9350610b05818560208601610aa5565b610b0e81610acf565b840191505092915050565b60006020820190508181036000830152610b338184610ae0565b905092915050565b600080fd5b600073ffffffffffffffffffffffffffffffffffffffff82169050919050565b6000610b6b82610b40565b9050919050565b610b7b81610b60565b8114610b8657600080fd5b50565b600081359050610b9881610b72565b92915050565b6000819050919050565b610bb181610b9e565b8114610bbc57600080fd5b50565b600081359050610bce81610ba8565b92915050565b60008060408385031215610beb57610bea610b3b565b5b6000610bf985828601610b89565b9250506020610c0a85828601610bbf565b9150509250929050565b60008115159050919050565b610c2981610c14565b82525050565b6000602082019050610c446000830184610c20565b92915050565b610c5381610b9e565b82525050565b6000602082019050610c6e6000830184610c4a565b92915050565b7f4e487b7100000000000000000000000000000000000000000000000000000000600052601160045260246000fd5b6000610cae82610b9e565b9150610cb983610b9e565b9250828203905081811115610cd157610cd0610c74565b5b92915050565b6000610ce282610b9e565b9150610ced83610b9e565b9250828201905080821115610d0557610d04610c74565b5b92915050565b7f5573657220616c72656164792068617320706c616e7400000000000000000000600082015250565b6000610d41601683610a94565b9150610d4c82610d0b565b602082019050919050565b60006020820190508181036000830152610d7081610d34565b9050919050565b7f4e487b7100000000000000000000000000000000000000000000000000000000600052603260045260246000fd5b7f55736572206d7573742068617665206120706c616e7400000000000000000000600082015250565b6000610ddc601683610a94565b9150610de782610da6565b602082019050919050565b60006020820190508181036000830152610e0b81610dcf565b9050919050565b6000610e1d82610b9e565b9150610e2883610b9e565b9250828202610e3681610b9e565b91508282048414831517610e4d57610e4c610c74565b5b509291505056fea264697066735822122092b474494e59d68b033dd5b87673fff768fb63f565e1bc08c16ff57c2caf887364736f6c63430008110033",
  "immutableReferences": {},
  "source": "pragma solidity >=0.8.0;\n\nimport \"./leaves.sol\";\n\ncontract Moneytrees is Leaves {\n    struct Plant {\n        uint id;\n        bool watered;\n        uint growthStage;\n        uint feedAmount;\n    }\n    mapping (address => uint) ownerPlant;\n    mapping(address => uint) cooldowns;\n\n    modifier ownsPlant() {\n        require(ownerPlant[msg.sender] != 0, \"User must have a plant\");\n        _;\n    }\n\n    Plant[] plants;\n    function createPlant() public returns (bool success) {\n        require(ownerPlant[msg.sender] == 0,\"User already has plant\");\n        uint newId = plants.length + 1;\n        Plant memory newPlant = Plant(newId,false,0,0);\n        plants.push(newPlant);\n        ownerPlant[msg.sender] = newId;\n        return true;\n    }\n    function waterPlant() public ownsPlant returns (bool success) {\n        require(block.timestamp >= cooldowns[msg.sender]);\n        cooldowns[msg.sender] = block.timestamp + 20 seconds;\n        uint id = ownerPlant[msg.sender];\n        Plant storage currentPlant = plants[id - 1];\n        currentPlant.watered = true;\n        getDailyCoins();\n        return true;\n    }\n    function feedPlant() public ownsPlant returns (bool success) {\n        spend(msg.sender, 1);\n        uint id = ownerPlant[msg.sender];\n        Plant storage currentPlant = plants[id - 1];\n        currentPlant.feedAmount += 1;\n        if (currentPlant.feedAmount == (currentPlant.growthStage + 1) * 5) {\n            currentPlant.growthStage += 1;\n            if (currentPlant.growthStage > 4) {\n                currentPlant.growthStage = 4;\n            }\n            currentPlant.feedAmount = 0;\n        }\n        return true;\n    }\n    function getPlantWatered() public view returns (bool) {\n        return plants[ownerPlant[msg.sender] - 1].watered;\n    }\n    function getPlantGrowth() public view returns (uint) {\n        return plants[ownerPlant[msg.sender] - 1].growthStage;\n    }\n    function getPlantFeed() public view returns (uint) {\n        return plants[ownerPlant[msg.sender] - 1].feedAmount;\n    }\n}",
  "sourcePath": "/Users/jackrathbone/Documents/durhack/moneytree/blockchain/contracts/contracts/moneytree.sol",
  "compiler": {
    "name": "solc",
    "version": "0.8.17+commit.8df45f5f.Emscripten.clang"
  },
  "schemaVersion": "3.4.10",
  "updatedAt": "2022-11-19T15:41:58.067Z",
  "devdoc": {
    "kind": "dev",
    "methods": {},
    "version": 1
  },
  "userdoc": {
    "kind": "user",
    "methods": {},
    "version": 1
  }
}