{
  "contractName": "Moneytrees",
  "abi": [
    {
      "inputs": [],
      "name": "balanceOf",
      "outputs": [
        {
          "internalType": "uint256",
          "name": "",
          "type": "uint256"
        }
      ],
      "stateMutability": "view",
      "type": "function"
    },
    {
      "inputs": [],
      "name": "name",
      "outputs": [
        {
          "internalType": "string",
          "name": "",
          "type": "string"
        }
      ],
      "stateMutability": "pure",
      "type": "function"
    },
    {
      "inputs": [
        {
          "internalType": "address",
          "name": "_to",
          "type": "address"
        },
        {
          "internalType": "uint256",
          "name": "_value",
          "type": "uint256"
        }
      ],
      "name": "transferTo",
      "outputs": [
        {
          "internalType": "bool",
          "name": "success",
          "type": "bool"
        }
      ],
      "stateMutability": "nonpayable",
      "type": "function"
    },
    {
      "inputs": [],
      "name": "createPlant",
      "outputs": [
        {
          "internalType": "bool",
          "name": "success",
          "type": "bool"
        }
      ],
      "stateMutability": "nonpayable",
      "type": "function"
    },
    {
      "inputs": [],
      "name": "hasPlant",
      "outputs": [
        {
          "internalType": "bool",
          "name": "",
          "type": "bool"
        }
      ],
      "stateMutability": "view",
      "type": "function"
    },
    {
      "inputs": [],
      "name": "waterPlant",
      "outputs": [
        {
          "internalType": "bool",
          "name": "success",
          "type": "bool"
        }
      ],
      "stateMutability": "nonpayable",
      "type": "function"
    },
    {
      "inputs": [],
      "name": "canWater",
      "outputs": [
        {
          "internalType": "bool",
          "name": "",
          "type": "bool"
        }
      ],
      "stateMutability": "view",
      "type": "function"
    },
    {
      "inputs": [],
      "name": "getCooldown",
      "outputs": [
        {
          "internalType": "uint256",
          "name": "",
          "type": "uint256"
        }
      ],
      "stateMutability": "view",
      "type": "function"
    },
    {
      "inputs": [],
      "name": "feedPlant",
      "outputs": [
        {
          "internalType": "bool",
          "name": "success",
          "type": "bool"
        }
      ],
      "stateMutability": "nonpayable",
      "type": "function"
    },
    {
      "inputs": [],
      "name": "getPlantWatered",
      "outputs": [
        {
          "internalType": "bool",
          "name": "",
          "type": "bool"
        }
      ],
      "stateMutability": "view",
      "type": "function"
    },
    {
      "inputs": [],
      "name": "getPlantGrowth",
      "outputs": [
        {
          "internalType": "uint256",
          "name": "",
          "type": "uint256"
        }
      ],
      "stateMutability": "view",
      "type": "function"
    },
    {
      "inputs": [],
      "name": "getPlantFeed",
      "outputs": [
        {
          "internalType": "uint256",
          "name": "",
          "type": "uint256"
        }
      ],
      "stateMutability": "view",
      "type": "function"
    }
  ],
  "bytecode": "0x608060405234801561001057600080fd5b506110e4806100206000396000f3fe608060405234801561001057600080fd5b50600436106100b45760003560e01c8063833d499311610071578063833d49931461017f578063a82cdf2c1461019d578063b2eb53a1146101bb578063e6510e54146101d9578063ea629516146101f7578063eab4f15114610215576100b4565b806306fdde03146100b9578063218e4a15146100d75780632ccb1b30146100f55780636482873814610125578063722713f71461014357806375ffcee214610161575b600080fd5b6100c1610233565b6040516100ce9190610d73565b60405180910390f35b6100df610270565b6040516100ec9190610dae565b60405180910390f35b61010f600480360381019061010a9190610e58565b610338565b60405161011c9190610eb3565b60405180910390f35b61012d610439565b60405161013a9190610eb3565b60405180910390f35b61014b6105b5565b6040516101589190610dae565b60405180910390f35b6101696105fb565b6040516101769190610eb3565b60405180910390f35b610187610645565b6040516101949190610eb3565b60405180910390f35b6101a56106c9565b6040516101b29190610eb3565b60405180910390f35b6101c3610794565b6040516101d09190610eb3565b60405180910390f35b6101e161095a565b6040516101ee9190610eb3565b60405180910390f35b6101ff610aea565b60405161020c9190610dae565b60405180910390f35b61021d610b61565b60405161022a9190610dae565b60405180910390f35b60606040518060400160405280600681526020017f4c65617665730000000000000000000000000000000000000000000000000000815250905090565b600080600160003373ffffffffffffffffffffffffffffffffffffffff1673ffffffffffffffffffffffffffffffffffffffff16815260200190815260200160002054036102f3576040517f08c379a00000000000000000000000000000000000000000000000000000000081526004016102ea90610f1a565b60405180910390fd5b600260003373ffffffffffffffffffffffffffffffffffffffff1673ffffffffffffffffffffffffffffffffffffffff16815260200190815260200160002054905090565b6000816000803373ffffffffffffffffffffffffffffffffffffffff1673ffffffffffffffffffffffffffffffffffffffff16815260200190815260200160002054101561038557600080fd5b816000803373ffffffffffffffffffffffffffffffffffffffff1673ffffffffffffffffffffffffffffffffffffffff16815260200190815260200160002060008282546103d39190610f69565b92505081905550816000808573ffffffffffffffffffffffffffffffffffffffff1673ffffffffffffffffffffffffffffffffffffffff16815260200190815260200160002060008282546104289190610f9d565b925050819055506001905092915050565b600080600160003373ffffffffffffffffffffffffffffffffffffffff1673ffffffffffffffffffffffffffffffffffffffff16815260200190815260200160002054146104bc576040517f08c379a00000000000000000000000000000000000000000000000000000000081526004016104b39061101d565b60405180910390fd5b600060016003805490506104d09190610f9d565b905060006040518060800160405280838152602001600015158152602001600081526020016000815250905060038190806001815401808255809150506001900390600052602060002090600402016000909190919091506000820151816000015560208201518160010160006101000a81548160ff0219169083151502179055506040820151816002015560608201518160030155505081600160003373ffffffffffffffffffffffffffffffffffffffff1673ffffffffffffffffffffffffffffffffffffffff1681526020019081526020016000208190555060019250505090565b60008060003373ffffffffffffffffffffffffffffffffffffffff1673ffffffffffffffffffffffffffffffffffffffff16815260200190815260200160002054905090565b600080600160003373ffffffffffffffffffffffffffffffffffffffff1673ffffffffffffffffffffffffffffffffffffffff168152602001908152602001600020541415905090565b6000600360018060003373ffffffffffffffffffffffffffffffffffffffff1673ffffffffffffffffffffffffffffffffffffffff168152602001908152602001600020546106949190610f69565b815481106106a5576106a461103d565b5b906000526020600020906004020160010160009054906101000a900460ff16905090565b600080600160003373ffffffffffffffffffffffffffffffffffffffff1673ffffffffffffffffffffffffffffffffffffffff168152602001908152602001600020540361074c576040517f08c379a000000000000000000000000000000000000000000000000000000000815260040161074390610f1a565b60405180910390fd5b42600260003373ffffffffffffffffffffffffffffffffffffffff1673ffffffffffffffffffffffffffffffffffffffff168152602001908152602001600020541115905090565b600080600160003373ffffffffffffffffffffffffffffffffffffffff1673ffffffffffffffffffffffffffffffffffffffff1681526020019081526020016000205403610817576040517f08c379a000000000000000000000000000000000000000000000000000000000815260040161080e90610f1a565b60405180910390fd5b600260003373ffffffffffffffffffffffffffffffffffffffff1673ffffffffffffffffffffffffffffffffffffffff1681526020019081526020016000205442101561086357600080fd5b62015180426108729190610f9d565b600260003373ffffffffffffffffffffffffffffffffffffffff1673ffffffffffffffffffffffffffffffffffffffff168152602001908152602001600020819055506000600160003373ffffffffffffffffffffffffffffffffffffffff1673ffffffffffffffffffffffffffffffffffffffff1681526020019081526020016000205490506000600360018361090a9190610f69565b8154811061091b5761091a61103d565b5b9060005260206000209060040201905060018160010160006101000a81548160ff021916908315150217905550610950610bd8565b5060019250505090565b600080600160003373ffffffffffffffffffffffffffffffffffffffff1673ffffffffffffffffffffffffffffffffffffffff16815260200190815260200160002054036109dd576040517f08c379a00000000000000000000000000000000000000000000000000000000081526004016109d490610f1a565b60405180910390fd5b6109e8336001610c37565b506000600160003373ffffffffffffffffffffffffffffffffffffffff1673ffffffffffffffffffffffffffffffffffffffff16815260200190815260200160002054905060006003600183610a3e9190610f69565b81548110610a4f57610a4e61103d565b5b906000526020600020906004020190506001816003016000828254610a749190610f9d565b92505081905550600560018260020154610a8e9190610f9d565b610a98919061106c565b816003015403610ae1576001816002016000828254610ab79190610f9d565b92505081905550600481600201541115610ad657600481600201819055505b600081600301819055505b60019250505090565b6000600360018060003373ffffffffffffffffffffffffffffffffffffffff1673ffffffffffffffffffffffffffffffffffffffff16815260200190815260200160002054610b399190610f69565b81548110610b4a57610b4961103d565b5b906000526020600020906004020160020154905090565b6000600360018060003373ffffffffffffffffffffffffffffffffffffffff1673ffffffffffffffffffffffffffffffffffffffff16815260200190815260200160002054610bb09190610f69565b81548110610bc157610bc061103d565b5b906000526020600020906004020160030154905090565b600060026000803373ffffffffffffffffffffffffffffffffffffffff1673ffffffffffffffffffffffffffffffffffffffff1681526020019081526020016000206000828254610c299190610f9d565b925050819055506001905090565b6000816000808573ffffffffffffffffffffffffffffffffffffffff1673ffffffffffffffffffffffffffffffffffffffff168152602001908152602001600020541015610c8457600080fd5b816000808573ffffffffffffffffffffffffffffffffffffffff1673ffffffffffffffffffffffffffffffffffffffff1681526020019081526020016000206000828254610cd29190610f69565b925050819055506001905092915050565b600081519050919050565b600082825260208201905092915050565b60005b83811015610d1d578082015181840152602081019050610d02565b60008484015250505050565b6000601f19601f8301169050919050565b6000610d4582610ce3565b610d4f8185610cee565b9350610d5f818560208601610cff565b610d6881610d29565b840191505092915050565b60006020820190508181036000830152610d8d8184610d3a565b905092915050565b6000819050919050565b610da881610d95565b82525050565b6000602082019050610dc36000830184610d9f565b92915050565b600080fd5b600073ffffffffffffffffffffffffffffffffffffffff82169050919050565b6000610df982610dce565b9050919050565b610e0981610dee565b8114610e1457600080fd5b50565b600081359050610e2681610e00565b92915050565b610e3581610d95565b8114610e4057600080fd5b50565b600081359050610e5281610e2c565b92915050565b60008060408385031215610e6f57610e6e610dc9565b5b6000610e7d85828601610e17565b9250506020610e8e85828601610e43565b9150509250929050565b60008115159050919050565b610ead81610e98565b82525050565b6000602082019050610ec86000830184610ea4565b92915050565b7f55736572206d7573742068617665206120706c616e7400000000000000000000600082015250565b6000610f04601683610cee565b9150610f0f82610ece565b602082019050919050565b60006020820190508181036000830152610f3381610ef7565b9050919050565b7f4e487b7100000000000000000000000000000000000000000000000000000000600052601160045260246000fd5b6000610f7482610d95565b9150610f7f83610d95565b9250828203905081811115610f9757610f96610f3a565b5b92915050565b6000610fa882610d95565b9150610fb383610d95565b9250828201905080821115610fcb57610fca610f3a565b5b92915050565b7f5573657220616c72656164792068617320706c616e7400000000000000000000600082015250565b6000611007601683610cee565b915061101282610fd1565b602082019050919050565b6000602082019050818103600083015261103681610ffa565b9050919050565b7f4e487b7100000000000000000000000000000000000000000000000000000000600052603260045260246000fd5b600061107782610d95565b915061108283610d95565b925082820261109081610d95565b915082820484148315176110a7576110a6610f3a565b5b509291505056fea2646970667358221220581faa6c32fd289507bd707872ddd16cbf60a8ab0fc070736024c9c4be4e289f64736f6c63430008110033",
  "immutableReferences": {},
  "source": "pragma solidity >=0.8.0;\n\nimport \"./leaves.sol\";\n\ncontract Moneytrees is Leaves {\n    struct Plant {\n        uint id;\n        bool watered;\n        uint growthStage;\n        uint feedAmount;\n    }\n    mapping (address => uint) ownerPlant;\n    mapping(address => uint) cooldowns;\n\n    modifier ownsPlant() {\n        require(ownerPlant[msg.sender] != 0, \"User must have a plant\");\n        _;\n    }\n\n    Plant[] plants;\n    function createPlant() public returns (bool success) {\n        require(ownerPlant[msg.sender] == 0,\"User already has plant\");\n        uint newId = plants.length + 1;\n        Plant memory newPlant = Plant(newId,false,0,0);\n        plants.push(newPlant);\n        ownerPlant[msg.sender] = newId;\n        return true;\n    }\n    function hasPlant() public view returns (bool) {\n        return ownerPlant[msg.sender] != 0;\n    }\n    function waterPlant() public ownsPlant returns (bool success) {\n        require(block.timestamp >= cooldowns[msg.sender]);\n        cooldowns[msg.sender] = block.timestamp + 1 days;\n        uint id = ownerPlant[msg.sender];\n        Plant storage currentPlant = plants[id - 1];\n        currentPlant.watered = true;\n        getDailyCoins();\n        return true;\n    }\n    function canWater() public view ownsPlant returns (bool) {\n        return cooldowns[msg.sender] <= block.timestamp;\n    }\n    function getCooldown() public view ownsPlant returns (uint) {\n        return cooldowns[msg.sender];\n    }\n    function feedPlant() public ownsPlant returns (bool success) {\n        spend(msg.sender, 1);\n        uint id = ownerPlant[msg.sender];\n        Plant storage currentPlant = plants[id - 1];\n        currentPlant.feedAmount += 1;\n        if (currentPlant.feedAmount == (currentPlant.growthStage + 1) * 5) {\n            currentPlant.growthStage += 1;\n            if (currentPlant.growthStage > 4) {\n                currentPlant.growthStage = 4;\n            }\n            currentPlant.feedAmount = 0;\n        }\n        return true;\n    }\n    function getPlantWatered() public view returns (bool) {\n        return plants[ownerPlant[msg.sender] - 1].watered;\n    }\n    function getPlantGrowth() public view returns (uint) {\n        return plants[ownerPlant[msg.sender] - 1].growthStage;\n    }\n    function getPlantFeed() public view returns (uint) {\n        return plants[ownerPlant[msg.sender] - 1].feedAmount;\n    }\n}",
  "sourcePath": "/Users/jackrathbone/Documents/durhack/moneytree/blockchain/contracts/contracts/moneytree.sol",
  "compiler": {
    "name": "solc",
    "version": "0.8.17+commit.8df45f5f.Emscripten.clang"
  },
  "schemaVersion": "3.4.10",
  "updatedAt": "2022-11-19T17:14:56.235Z",
  "devdoc": {
    "kind": "dev",
    "methods": {},
    "version": 1
  },
  "userdoc": {
    "kind": "user",
    "methods": {},
    "version": 1
  }
}